{
	"Task1/Voting.sol": {
		"Voting": {
			"abi": [
				{
					"anonymous": false,
					"inputs": [
						{
							"indexed": true,
							"internalType": "address",
							"name": "voter",
							"type": "address"
						},
						{
							"indexed": false,
							"internalType": "string",
							"name": "candidate",
							"type": "string"
						},
						{
							"indexed": false,
							"internalType": "uint256",
							"name": "newVoteCount",
							"type": "uint256"
						}
					],
					"name": "Voted",
					"type": "event"
				},
				{
					"inputs": [
						{
							"internalType": "string",
							"name": "candidate",
							"type": "string"
						}
					],
					"name": "GetVotes",
					"outputs": [
						{
							"internalType": "uint256",
							"name": "",
							"type": "uint256"
						}
					],
					"stateMutability": "view",
					"type": "function"
				},
				{
					"inputs": [],
					"name": "ResetVote",
					"outputs": [],
					"stateMutability": "nonpayable",
					"type": "function"
				},
				{
					"inputs": [
						{
							"internalType": "string",
							"name": "candidate",
							"type": "string"
						}
					],
					"name": "Vote",
					"outputs": [],
					"stateMutability": "nonpayable",
					"type": "function"
				}
			],
			"devdoc": {
				"kind": "dev",
				"methods": {},
				"version": 1
			},
			"evm": {
				"assembly": "    /* \"Task1/Voting.sol\":436:1537  contract Voting{... */\n  mstore(0x40, 0x80)\n  callvalue\n  dup1\n  iszero\n  tag_1\n  jumpi\n  revert(0x00, 0x00)\ntag_1:\n  pop\n  dataSize(sub_0)\n  dup1\n  dataOffset(sub_0)\n  0x00\n  codecopy\n  0x00\n  return\nstop\n\nsub_0: assembly {\n        /* \"Task1/Voting.sol\":436:1537  contract Voting{... */\n      mstore(0x40, 0x80)\n      callvalue\n      dup1\n      iszero\n      tag_1\n      jumpi\n      revert(0x00, 0x00)\n    tag_1:\n      pop\n      jumpi(tag_2, lt(calldatasize, 0x04))\n      shr(0xe0, calldataload(0x00))\n      dup1\n      0x228197ad\n      eq\n      tag_3\n      jumpi\n      dup1\n      0x323082d7\n      eq\n      tag_4\n      jumpi\n      dup1\n      0xed92f5c0\n      eq\n      tag_5\n      jumpi\n    tag_2:\n      revert(0x00, 0x00)\n        /* \"Task1/Voting.sol\":1211:1326  function GetVotes(string memory candidate) public view returns (uint256) {... */\n    tag_3:\n      tag_6\n      0x04\n      dup1\n      calldatasize\n      sub\n      dup2\n      add\n      swap1\n      tag_7\n      swap2\n      swap1\n      tag_8\n      jump\t// in\n    tag_7:\n      tag_9\n      jump\t// in\n    tag_6:\n      mload(0x40)\n      tag_10\n      swap2\n      swap1\n      tag_11\n      jump\t// in\n    tag_10:\n      mload(0x40)\n      dup1\n      swap2\n      sub\n      swap1\n      return\n        /* \"Task1/Voting.sol\":788:1203  function Vote(string memory candidate) public{    //memory：函数执行时的临时内存（函数参数/局部变量默认位置）... */\n    tag_4:\n      tag_12\n      0x04\n      dup1\n      calldatasize\n      sub\n      dup2\n      add\n      swap1\n      tag_13\n      swap2\n      swap1\n      tag_8\n      jump\t// in\n    tag_13:\n      tag_14\n      jump\t// in\n    tag_12:\n      stop\n        /* \"Task1/Voting.sol\":1334:1534  function ResetVote() public{... */\n    tag_5:\n      tag_15\n      tag_16\n      jump\t// in\n    tag_15:\n      stop\n        /* \"Task1/Voting.sol\":1211:1326  function GetVotes(string memory candidate) public view returns (uint256) {... */\n    tag_9:\n        /* \"Task1/Voting.sol\":1275:1282  uint256 */\n      0x00\n        /* \"Task1/Voting.sol\":1302:1307  votes */\n      0x00\n        /* \"Task1/Voting.sol\":1308:1317  candidate */\n      dup3\n        /* \"Task1/Voting.sol\":1302:1318  votes[candidate] */\n      mload(0x40)\n      tag_18\n      swap2\n      swap1\n      tag_19\n      jump\t// in\n    tag_18:\n      swap1\n      dup2\n      mstore\n      0x20\n      add\n      mload(0x40)\n      dup1\n      swap2\n      sub\n      swap1\n      keccak256\n      sload\n        /* \"Task1/Voting.sol\":1295:1318  return votes[candidate] */\n      swap1\n      pop\n        /* \"Task1/Voting.sol\":1211:1326  function GetVotes(string memory candidate) public view returns (uint256) {... */\n      swap2\n      swap1\n      pop\n      jump\t// out\n        /* \"Task1/Voting.sol\":788:1203  function Vote(string memory candidate) public{    //memory：函数执行时的临时内存（函数参数/局部变量默认位置）... */\n    tag_14:\n        /* \"Task1/Voting.sol\":1021:1022  0 */\n      0x00\n        /* \"Task1/Voting.sol\":1001:1006  votes */\n      0x00\n        /* \"Task1/Voting.sol\":1007:1016  candidate */\n      dup3\n        /* \"Task1/Voting.sol\":1001:1017  votes[candidate] */\n      mload(0x40)\n      tag_21\n      swap2\n      swap1\n      tag_19\n      jump\t// in\n    tag_21:\n      swap1\n      dup2\n      mstore\n      0x20\n      add\n      mload(0x40)\n      dup1\n      swap2\n      sub\n      swap1\n      keccak256\n      sload\n        /* \"Task1/Voting.sol\":1001:1022  votes[candidate] == 0 */\n      sub\n        /* \"Task1/Voting.sol\":997:1077  if (votes[candidate] == 0) {... */\n      tag_22\n      jumpi\n        /* \"Task1/Voting.sol\":1039:1049  candidates */\n      0x01\n        /* \"Task1/Voting.sol\":1055:1064  candidate */\n      dup2\n        /* \"Task1/Voting.sol\":1039:1065  candidates.push(candidate) */\n      swap1\n      dup1\n      0x01\n      dup2\n      sload\n      add\n      dup1\n      dup3\n      sstore\n      dup1\n      swap2\n      pop\n      pop\n      0x01\n      swap1\n      sub\n      swap1\n      0x00\n      mstore\n      keccak256(0x00, 0x20)\n      add\n      0x00\n      swap1\n      swap2\n      swap1\n      swap2\n      swap1\n      swap2\n      pop\n      swap1\n      dup2\n      tag_24\n      swap2\n      swap1\n      tag_25\n      jump\t// in\n    tag_24:\n      pop\n        /* \"Task1/Voting.sol\":997:1077  if (votes[candidate] == 0) {... */\n    tag_22:\n        /* \"Task1/Voting.sol\":1087:1092  votes */\n      0x00\n        /* \"Task1/Voting.sol\":1093:1102  candidate */\n      dup2\n        /* \"Task1/Voting.sol\":1087:1103  votes[candidate] */\n      mload(0x40)\n      tag_26\n      swap2\n      swap1\n      tag_19\n      jump\t// in\n    tag_26:\n      swap1\n      dup2\n      mstore\n      0x20\n      add\n      mload(0x40)\n      dup1\n      swap2\n      sub\n      swap1\n      keccak256\n      0x00\n        /* \"Task1/Voting.sol\":1087:1105  votes[candidate]++ */\n      dup2\n      sload\n      dup1\n      swap3\n      swap2\n      swap1\n      tag_27\n      swap1\n      tag_28\n      jump\t// in\n    tag_27:\n      swap2\n      swap1\n      pop\n      sstore\n      pop\n        /* \"Task1/Voting.sol\":1127:1137  msg.sender */\n      caller\n        /* \"Task1/Voting.sol\":1121:1167  Voted(msg.sender, candidate, votes[candidate]) */\n      0xffffffffffffffffffffffffffffffffffffffff\n      and\n      0x35b4034b2bbe10bb07b21969c986794a6276a531bb155886a9f883bb5c9dc8e8\n        /* \"Task1/Voting.sol\":1139:1148  candidate */\n      dup3\n        /* \"Task1/Voting.sol\":1150:1155  votes */\n      0x00\n        /* \"Task1/Voting.sol\":1156:1165  candidate */\n      dup5\n        /* \"Task1/Voting.sol\":1150:1166  votes[candidate] */\n      mload(0x40)\n      tag_29\n      swap2\n      swap1\n      tag_19\n      jump\t// in\n    tag_29:\n      swap1\n      dup2\n      mstore\n      0x20\n      add\n      mload(0x40)\n      dup1\n      swap2\n      sub\n      swap1\n      keccak256\n      sload\n        /* \"Task1/Voting.sol\":1121:1167  Voted(msg.sender, candidate, votes[candidate]) */\n      mload(0x40)\n      tag_30\n      swap3\n      swap2\n      swap1\n      tag_31\n      jump\t// in\n    tag_30:\n      mload(0x40)\n      dup1\n      swap2\n      sub\n      swap1\n      log2\n        /* \"Task1/Voting.sol\":788:1203  function Vote(string memory candidate) public{    //memory：函数执行时的临时内存（函数参数/局部变量默认位置）... */\n      pop\n      jump\t// out\n        /* \"Task1/Voting.sol\":1334:1534  function ResetVote() public{... */\n    tag_16:\n        /* \"Task1/Voting.sol\":1372:1386  uint256 length */\n      0x00\n        /* \"Task1/Voting.sol\":1389:1399  candidates */\n      0x01\n        /* \"Task1/Voting.sol\":1389:1406  candidates.length */\n      dup1\n      sload\n      swap1\n      pop\n        /* \"Task1/Voting.sol\":1372:1406  uint256 length = candidates.length */\n      swap1\n      pop\n        /* \"Task1/Voting.sol\":1421:1430  uint256 i */\n      0x00\n        /* \"Task1/Voting.sol\":1433:1434  0 */\n      0x00\n        /* \"Task1/Voting.sol\":1421:1434  uint256 i = 0 */\n      swap1\n      pop\n        /* \"Task1/Voting.sol\":1417:1499  for(uint256 i = 0; i<length; i++){... */\n    tag_33:\n        /* \"Task1/Voting.sol\":1438:1444  length */\n      dup2\n        /* \"Task1/Voting.sol\":1436:1437  i */\n      dup2\n        /* \"Task1/Voting.sol\":1436:1444  i<length */\n      lt\n        /* \"Task1/Voting.sol\":1417:1499  for(uint256 i = 0; i<length; i++){... */\n      iszero\n      tag_34\n      jumpi\n        /* \"Task1/Voting.sol\":1486:1487  0 */\n      0x00\n        /* \"Task1/Voting.sol\":1465:1470  votes */\n      0x00\n        /* \"Task1/Voting.sol\":1471:1481  candidates */\n      0x01\n        /* \"Task1/Voting.sol\":1482:1483  i */\n      dup4\n        /* \"Task1/Voting.sol\":1471:1484  candidates[i] */\n      dup2\n      sload\n      dup2\n      lt\n      tag_36\n      jumpi\n      tag_37\n      tag_38\n      jump\t// in\n    tag_37:\n    tag_36:\n      swap1\n      0x00\n      mstore\n      keccak256(0x00, 0x20)\n      add\n        /* \"Task1/Voting.sol\":1465:1485  votes[candidates[i]] */\n      mload(0x40)\n      tag_40\n      swap2\n      swap1\n      tag_41\n      jump\t// in\n    tag_40:\n      swap1\n      dup2\n      mstore\n      0x20\n      add\n      mload(0x40)\n      dup1\n      swap2\n      sub\n      swap1\n      keccak256\n        /* \"Task1/Voting.sol\":1465:1487  votes[candidates[i]]=0 */\n      dup2\n      swap1\n      sstore\n      pop\n        /* \"Task1/Voting.sol\":1446:1449  i++ */\n      dup1\n      dup1\n      0x01\n      add\n      swap2\n      pop\n      pop\n        /* \"Task1/Voting.sol\":1417:1499  for(uint256 i = 0; i<length; i++){... */\n      jump(tag_33)\n    tag_34:\n      pop\n        /* \"Task1/Voting.sol\":1516:1526  candidates */\n      0x01\n      0x00\n        /* \"Task1/Voting.sol\":1509:1526  delete candidates */\n      tag_42\n      swap2\n      swap1\n      tag_43\n      jump\t// in\n    tag_42:\n        /* \"Task1/Voting.sol\":1361:1534  {... */\n      pop\n        /* \"Task1/Voting.sol\":1334:1534  function ResetVote() public{... */\n      jump\t// out\n    tag_43:\n      pop\n      dup1\n      sload\n      0x00\n      dup3\n      sstore\n      swap1\n      0x00\n      mstore\n      keccak256(0x00, 0x20)\n      swap1\n      dup2\n      add\n      swap1\n      tag_45\n      swap2\n      swap1\n      tag_46\n      jump\t// in\n    tag_45:\n      pop\n      jump\t// out\n    tag_46:\n    tag_47:\n      dup1\n      dup3\n      gt\n      iszero\n      tag_48\n      jumpi\n      0x00\n      dup2\n      dup2\n      tag_49\n      swap2\n      swap1\n      tag_50\n      jump\t// in\n    tag_49:\n      pop\n      0x01\n      add\n      jump(tag_47)\n    tag_48:\n      pop\n      swap1\n      jump\t// out\n    tag_50:\n      pop\n      dup1\n      sload\n      tag_51\n      swap1\n      tag_52\n      jump\t// in\n    tag_51:\n      0x00\n      dup3\n      sstore\n      dup1\n      0x1f\n      lt\n      tag_54\n      jumpi\n      pop\n      jump(tag_53)\n    tag_54:\n      0x1f\n      add\n      0x20\n      swap1\n      div\n      swap1\n      0x00\n      mstore\n      keccak256(0x00, 0x20)\n      swap1\n      dup2\n      add\n      swap1\n      tag_55\n      swap2\n      swap1\n      tag_56\n      jump\t// in\n    tag_55:\n    tag_53:\n      pop\n      jump\t// out\n    tag_56:\n    tag_57:\n      dup1\n      dup3\n      gt\n      iszero\n      tag_58\n      jumpi\n      0x00\n      dup2\n      0x00\n      swap1\n      sstore\n      pop\n      0x01\n      add\n      jump(tag_57)\n    tag_58:\n      pop\n      swap1\n      jump\t// out\n        /* \"#utility.yul\":7:82   */\n    tag_59:\n        /* \"#utility.yul\":40:46   */\n      0x00\n        /* \"#utility.yul\":73:75   */\n      0x40\n        /* \"#utility.yul\":67:76   */\n      mload\n        /* \"#utility.yul\":57:76   */\n      swap1\n      pop\n        /* \"#utility.yul\":7:82   */\n      swap1\n      jump\t// out\n        /* \"#utility.yul\":88:205   */\n    tag_60:\n        /* \"#utility.yul\":197:198   */\n      0x00\n        /* \"#utility.yul\":194:195   */\n      0x00\n        /* \"#utility.yul\":187:199   */\n      revert\n        /* \"#utility.yul\":211:328   */\n    tag_61:\n        /* \"#utility.yul\":320:321   */\n      0x00\n        /* \"#utility.yul\":317:318   */\n      0x00\n        /* \"#utility.yul\":310:322   */\n      revert\n        /* \"#utility.yul\":334:451   */\n    tag_62:\n        /* \"#utility.yul\":443:444   */\n      0x00\n        /* \"#utility.yul\":440:441   */\n      0x00\n        /* \"#utility.yul\":433:445   */\n      revert\n        /* \"#utility.yul\":457:574   */\n    tag_63:\n        /* \"#utility.yul\":566:567   */\n      0x00\n        /* \"#utility.yul\":563:564   */\n      0x00\n        /* \"#utility.yul\":556:568   */\n      revert\n        /* \"#utility.yul\":580:682   */\n    tag_64:\n        /* \"#utility.yul\":621:627   */\n      0x00\n        /* \"#utility.yul\":672:674   */\n      0x1f\n        /* \"#utility.yul\":668:675   */\n      not\n        /* \"#utility.yul\":663:665   */\n      0x1f\n        /* \"#utility.yul\":656:661   */\n      dup4\n        /* \"#utility.yul\":652:666   */\n      add\n        /* \"#utility.yul\":648:676   */\n      and\n        /* \"#utility.yul\":638:676   */\n      swap1\n      pop\n        /* \"#utility.yul\":580:682   */\n      swap2\n      swap1\n      pop\n      jump\t// out\n        /* \"#utility.yul\":688:868   */\n    tag_65:\n        /* \"#utility.yul\":736:813   */\n      0x4e487b7100000000000000000000000000000000000000000000000000000000\n        /* \"#utility.yul\":733:734   */\n      0x00\n        /* \"#utility.yul\":726:814   */\n      mstore\n        /* \"#utility.yul\":833:837   */\n      0x41\n        /* \"#utility.yul\":830:831   */\n      0x04\n        /* \"#utility.yul\":823:838   */\n      mstore\n        /* \"#utility.yul\":857:861   */\n      0x24\n        /* \"#utility.yul\":854:855   */\n      0x00\n        /* \"#utility.yul\":847:862   */\n      revert\n        /* \"#utility.yul\":874:1155   */\n    tag_66:\n        /* \"#utility.yul\":957:984   */\n      tag_107\n        /* \"#utility.yul\":979:983   */\n      dup3\n        /* \"#utility.yul\":957:984   */\n      tag_64\n      jump\t// in\n    tag_107:\n        /* \"#utility.yul\":949:955   */\n      dup2\n        /* \"#utility.yul\":945:985   */\n      add\n        /* \"#utility.yul\":1087:1093   */\n      dup2\n        /* \"#utility.yul\":1075:1085   */\n      dup2\n        /* \"#utility.yul\":1072:1094   */\n      lt\n        /* \"#utility.yul\":1051:1069   */\n      0xffffffffffffffff\n        /* \"#utility.yul\":1039:1049   */\n      dup3\n        /* \"#utility.yul\":1036:1070   */\n      gt\n        /* \"#utility.yul\":1033:1095   */\n      or\n        /* \"#utility.yul\":1030:1118   */\n      iszero\n      tag_108\n      jumpi\n        /* \"#utility.yul\":1098:1116   */\n      tag_109\n      tag_65\n      jump\t// in\n    tag_109:\n        /* \"#utility.yul\":1030:1118   */\n    tag_108:\n        /* \"#utility.yul\":1138:1148   */\n      dup1\n        /* \"#utility.yul\":1134:1136   */\n      0x40\n        /* \"#utility.yul\":1127:1149   */\n      mstore\n        /* \"#utility.yul\":917:1155   */\n      pop\n        /* \"#utility.yul\":874:1155   */\n      pop\n      pop\n      jump\t// out\n        /* \"#utility.yul\":1161:1290   */\n    tag_67:\n        /* \"#utility.yul\":1195:1201   */\n      0x00\n        /* \"#utility.yul\":1222:1242   */\n      tag_111\n      tag_59\n      jump\t// in\n    tag_111:\n        /* \"#utility.yul\":1212:1242   */\n      swap1\n      pop\n        /* \"#utility.yul\":1251:1284   */\n      tag_112\n        /* \"#utility.yul\":1279:1283   */\n      dup3\n        /* \"#utility.yul\":1271:1277   */\n      dup3\n        /* \"#utility.yul\":1251:1284   */\n      tag_66\n      jump\t// in\n    tag_112:\n        /* \"#utility.yul\":1161:1290   */\n      swap2\n      swap1\n      pop\n      jump\t// out\n        /* \"#utility.yul\":1296:1604   */\n    tag_68:\n        /* \"#utility.yul\":1358:1362   */\n      0x00\n        /* \"#utility.yul\":1448:1466   */\n      0xffffffffffffffff\n        /* \"#utility.yul\":1440:1446   */\n      dup3\n        /* \"#utility.yul\":1437:1467   */\n      gt\n        /* \"#utility.yul\":1434:1490   */\n      iszero\n      tag_114\n      jumpi\n        /* \"#utility.yul\":1470:1488   */\n      tag_115\n      tag_65\n      jump\t// in\n    tag_115:\n        /* \"#utility.yul\":1434:1490   */\n    tag_114:\n        /* \"#utility.yul\":1508:1537   */\n      tag_116\n        /* \"#utility.yul\":1530:1536   */\n      dup3\n        /* \"#utility.yul\":1508:1537   */\n      tag_64\n      jump\t// in\n    tag_116:\n        /* \"#utility.yul\":1500:1537   */\n      swap1\n      pop\n        /* \"#utility.yul\":1592:1596   */\n      0x20\n        /* \"#utility.yul\":1586:1590   */\n      dup2\n        /* \"#utility.yul\":1582:1597   */\n      add\n        /* \"#utility.yul\":1574:1597   */\n      swap1\n      pop\n        /* \"#utility.yul\":1296:1604   */\n      swap2\n      swap1\n      pop\n      jump\t// out\n        /* \"#utility.yul\":1610:1758   */\n    tag_69:\n        /* \"#utility.yul\":1708:1714   */\n      dup3\n        /* \"#utility.yul\":1703:1706   */\n      dup2\n        /* \"#utility.yul\":1698:1701   */\n      dup4\n        /* \"#utility.yul\":1685:1715   */\n      calldatacopy\n        /* \"#utility.yul\":1749:1750   */\n      0x00\n        /* \"#utility.yul\":1740:1746   */\n      dup4\n        /* \"#utility.yul\":1735:1738   */\n      dup4\n        /* \"#utility.yul\":1731:1747   */\n      add\n        /* \"#utility.yul\":1724:1751   */\n      mstore\n        /* \"#utility.yul\":1610:1758   */\n      pop\n      pop\n      pop\n      jump\t// out\n        /* \"#utility.yul\":1764:2189   */\n    tag_70:\n        /* \"#utility.yul\":1842:1847   */\n      0x00\n        /* \"#utility.yul\":1867:1933   */\n      tag_119\n        /* \"#utility.yul\":1883:1932   */\n      tag_120\n        /* \"#utility.yul\":1925:1931   */\n      dup5\n        /* \"#utility.yul\":1883:1932   */\n      tag_68\n      jump\t// in\n    tag_120:\n        /* \"#utility.yul\":1867:1933   */\n      tag_67\n      jump\t// in\n    tag_119:\n        /* \"#utility.yul\":1858:1933   */\n      swap1\n      pop\n        /* \"#utility.yul\":1956:1962   */\n      dup3\n        /* \"#utility.yul\":1949:1954   */\n      dup2\n        /* \"#utility.yul\":1942:1963   */\n      mstore\n        /* \"#utility.yul\":1994:1998   */\n      0x20\n        /* \"#utility.yul\":1987:1992   */\n      dup2\n        /* \"#utility.yul\":1983:1999   */\n      add\n        /* \"#utility.yul\":2032:2035   */\n      dup5\n        /* \"#utility.yul\":2023:2029   */\n      dup5\n        /* \"#utility.yul\":2018:2021   */\n      dup5\n        /* \"#utility.yul\":2014:2030   */\n      add\n        /* \"#utility.yul\":2011:2036   */\n      gt\n        /* \"#utility.yul\":2008:2120   */\n      iszero\n      tag_121\n      jumpi\n        /* \"#utility.yul\":2039:2118   */\n      tag_122\n      tag_63\n      jump\t// in\n    tag_122:\n        /* \"#utility.yul\":2008:2120   */\n    tag_121:\n        /* \"#utility.yul\":2129:2183   */\n      tag_123\n        /* \"#utility.yul\":2176:2182   */\n      dup5\n        /* \"#utility.yul\":2171:2174   */\n      dup3\n        /* \"#utility.yul\":2166:2169   */\n      dup6\n        /* \"#utility.yul\":2129:2183   */\n      tag_69\n      jump\t// in\n    tag_123:\n        /* \"#utility.yul\":1848:2189   */\n      pop\n        /* \"#utility.yul\":1764:2189   */\n      swap4\n      swap3\n      pop\n      pop\n      pop\n      jump\t// out\n        /* \"#utility.yul\":2209:2549   */\n    tag_71:\n        /* \"#utility.yul\":2265:2270   */\n      0x00\n        /* \"#utility.yul\":2314:2317   */\n      dup3\n        /* \"#utility.yul\":2307:2311   */\n      0x1f\n        /* \"#utility.yul\":2299:2305   */\n      dup4\n        /* \"#utility.yul\":2295:2312   */\n      add\n        /* \"#utility.yul\":2291:2318   */\n      slt\n        /* \"#utility.yul\":2281:2403   */\n      tag_125\n      jumpi\n        /* \"#utility.yul\":2322:2401   */\n      tag_126\n      tag_62\n      jump\t// in\n    tag_126:\n        /* \"#utility.yul\":2281:2403   */\n    tag_125:\n        /* \"#utility.yul\":2439:2445   */\n      dup2\n        /* \"#utility.yul\":2426:2446   */\n      calldataload\n        /* \"#utility.yul\":2464:2543   */\n      tag_127\n        /* \"#utility.yul\":2539:2542   */\n      dup5\n        /* \"#utility.yul\":2531:2537   */\n      dup3\n        /* \"#utility.yul\":2524:2528   */\n      0x20\n        /* \"#utility.yul\":2516:2522   */\n      dup7\n        /* \"#utility.yul\":2512:2529   */\n      add\n        /* \"#utility.yul\":2464:2543   */\n      tag_70\n      jump\t// in\n    tag_127:\n        /* \"#utility.yul\":2455:2543   */\n      swap2\n      pop\n        /* \"#utility.yul\":2271:2549   */\n      pop\n        /* \"#utility.yul\":2209:2549   */\n      swap3\n      swap2\n      pop\n      pop\n      jump\t// out\n        /* \"#utility.yul\":2555:3064   */\n    tag_8:\n        /* \"#utility.yul\":2624:2630   */\n      0x00\n        /* \"#utility.yul\":2673:2675   */\n      0x20\n        /* \"#utility.yul\":2661:2670   */\n      dup3\n        /* \"#utility.yul\":2652:2659   */\n      dup5\n        /* \"#utility.yul\":2648:2671   */\n      sub\n        /* \"#utility.yul\":2644:2676   */\n      slt\n        /* \"#utility.yul\":2641:2760   */\n      iszero\n      tag_129\n      jumpi\n        /* \"#utility.yul\":2679:2758   */\n      tag_130\n      tag_60\n      jump\t// in\n    tag_130:\n        /* \"#utility.yul\":2641:2760   */\n    tag_129:\n        /* \"#utility.yul\":2827:2828   */\n      0x00\n        /* \"#utility.yul\":2816:2825   */\n      dup3\n        /* \"#utility.yul\":2812:2829   */\n      add\n        /* \"#utility.yul\":2799:2830   */\n      calldataload\n        /* \"#utility.yul\":2857:2875   */\n      0xffffffffffffffff\n        /* \"#utility.yul\":2849:2855   */\n      dup2\n        /* \"#utility.yul\":2846:2876   */\n      gt\n        /* \"#utility.yul\":2843:2960   */\n      iszero\n      tag_131\n      jumpi\n        /* \"#utility.yul\":2879:2958   */\n      tag_132\n      tag_61\n      jump\t// in\n    tag_132:\n        /* \"#utility.yul\":2843:2960   */\n    tag_131:\n        /* \"#utility.yul\":2984:3047   */\n      tag_133\n        /* \"#utility.yul\":3039:3046   */\n      dup5\n        /* \"#utility.yul\":3030:3036   */\n      dup3\n        /* \"#utility.yul\":3019:3028   */\n      dup6\n        /* \"#utility.yul\":3015:3037   */\n      add\n        /* \"#utility.yul\":2984:3047   */\n      tag_71\n      jump\t// in\n    tag_133:\n        /* \"#utility.yul\":2974:3047   */\n      swap2\n      pop\n        /* \"#utility.yul\":2770:3057   */\n      pop\n        /* \"#utility.yul\":2555:3064   */\n      swap3\n      swap2\n      pop\n      pop\n      jump\t// out\n        /* \"#utility.yul\":3070:3147   */\n    tag_72:\n        /* \"#utility.yul\":3107:3114   */\n      0x00\n        /* \"#utility.yul\":3136:3141   */\n      dup2\n        /* \"#utility.yul\":3125:3141   */\n      swap1\n      pop\n        /* \"#utility.yul\":3070:3147   */\n      swap2\n      swap1\n      pop\n      jump\t// out\n        /* \"#utility.yul\":3153:3271   */\n    tag_73:\n        /* \"#utility.yul\":3240:3264   */\n      tag_136\n        /* \"#utility.yul\":3258:3263   */\n      dup2\n        /* \"#utility.yul\":3240:3264   */\n      tag_72\n      jump\t// in\n    tag_136:\n        /* \"#utility.yul\":3235:3238   */\n      dup3\n        /* \"#utility.yul\":3228:3265   */\n      mstore\n        /* \"#utility.yul\":3153:3271   */\n      pop\n      pop\n      jump\t// out\n        /* \"#utility.yul\":3277:3499   */\n    tag_11:\n        /* \"#utility.yul\":3370:3374   */\n      0x00\n        /* \"#utility.yul\":3408:3410   */\n      0x20\n        /* \"#utility.yul\":3397:3406   */\n      dup3\n        /* \"#utility.yul\":3393:3411   */\n      add\n        /* \"#utility.yul\":3385:3411   */\n      swap1\n      pop\n        /* \"#utility.yul\":3421:3492   */\n      tag_138\n        /* \"#utility.yul\":3489:3490   */\n      0x00\n        /* \"#utility.yul\":3478:3487   */\n      dup4\n        /* \"#utility.yul\":3474:3491   */\n      add\n        /* \"#utility.yul\":3465:3471   */\n      dup5\n        /* \"#utility.yul\":3421:3492   */\n      tag_73\n      jump\t// in\n    tag_138:\n        /* \"#utility.yul\":3277:3499   */\n      swap3\n      swap2\n      pop\n      pop\n      jump\t// out\n        /* \"#utility.yul\":3505:3604   */\n    tag_74:\n        /* \"#utility.yul\":3557:3563   */\n      0x00\n        /* \"#utility.yul\":3591:3596   */\n      dup2\n        /* \"#utility.yul\":3585:3597   */\n      mload\n        /* \"#utility.yul\":3575:3597   */\n      swap1\n      pop\n        /* \"#utility.yul\":3505:3604   */\n      swap2\n      swap1\n      pop\n      jump\t// out\n        /* \"#utility.yul\":3610:3758   */\n    tag_75:\n        /* \"#utility.yul\":3712:3723   */\n      0x00\n        /* \"#utility.yul\":3749:3752   */\n      dup2\n        /* \"#utility.yul\":3734:3752   */\n      swap1\n      pop\n        /* \"#utility.yul\":3610:3758   */\n      swap3\n      swap2\n      pop\n      pop\n      jump\t// out\n        /* \"#utility.yul\":3764:3903   */\n    tag_76:\n        /* \"#utility.yul\":3853:3859   */\n      dup3\n        /* \"#utility.yul\":3848:3851   */\n      dup2\n        /* \"#utility.yul\":3843:3846   */\n      dup4\n        /* \"#utility.yul\":3837:3860   */\n      mcopy\n        /* \"#utility.yul\":3894:3895   */\n      0x00\n        /* \"#utility.yul\":3885:3891   */\n      dup4\n        /* \"#utility.yul\":3880:3883   */\n      dup4\n        /* \"#utility.yul\":3876:3892   */\n      add\n        /* \"#utility.yul\":3869:3896   */\n      mstore\n        /* \"#utility.yul\":3764:3903   */\n      pop\n      pop\n      pop\n      jump\t// out\n        /* \"#utility.yul\":3909:4299   */\n    tag_77:\n        /* \"#utility.yul\":4015:4018   */\n      0x00\n        /* \"#utility.yul\":4043:4082   */\n      tag_143\n        /* \"#utility.yul\":4076:4081   */\n      dup3\n        /* \"#utility.yul\":4043:4082   */\n      tag_74\n      jump\t// in\n    tag_143:\n        /* \"#utility.yul\":4098:4187   */\n      tag_144\n        /* \"#utility.yul\":4180:4186   */\n      dup2\n        /* \"#utility.yul\":4175:4178   */\n      dup6\n        /* \"#utility.yul\":4098:4187   */\n      tag_75\n      jump\t// in\n    tag_144:\n        /* \"#utility.yul\":4091:4187   */\n      swap4\n      pop\n        /* \"#utility.yul\":4196:4261   */\n      tag_145\n        /* \"#utility.yul\":4254:4260   */\n      dup2\n        /* \"#utility.yul\":4249:4252   */\n      dup6\n        /* \"#utility.yul\":4242:4246   */\n      0x20\n        /* \"#utility.yul\":4235:4240   */\n      dup7\n        /* \"#utility.yul\":4231:4247   */\n      add\n        /* \"#utility.yul\":4196:4261   */\n      tag_76\n      jump\t// in\n    tag_145:\n        /* \"#utility.yul\":4286:4292   */\n      dup1\n        /* \"#utility.yul\":4281:4284   */\n      dup5\n        /* \"#utility.yul\":4277:4293   */\n      add\n        /* \"#utility.yul\":4270:4293   */\n      swap2\n      pop\n        /* \"#utility.yul\":4019:4299   */\n      pop\n        /* \"#utility.yul\":3909:4299   */\n      swap3\n      swap2\n      pop\n      pop\n      jump\t// out\n        /* \"#utility.yul\":4305:4580   */\n    tag_19:\n        /* \"#utility.yul\":4437:4440   */\n      0x00\n        /* \"#utility.yul\":4459:4554   */\n      tag_147\n        /* \"#utility.yul\":4550:4553   */\n      dup3\n        /* \"#utility.yul\":4541:4547   */\n      dup5\n        /* \"#utility.yul\":4459:4554   */\n      tag_77\n      jump\t// in\n    tag_147:\n        /* \"#utility.yul\":4452:4554   */\n      swap2\n      pop\n        /* \"#utility.yul\":4571:4574   */\n      dup2\n        /* \"#utility.yul\":4564:4574   */\n      swap1\n      pop\n        /* \"#utility.yul\":4305:4580   */\n      swap3\n      swap2\n      pop\n      pop\n      jump\t// out\n        /* \"#utility.yul\":4586:4766   */\n    tag_78:\n        /* \"#utility.yul\":4634:4711   */\n      0x4e487b7100000000000000000000000000000000000000000000000000000000\n        /* \"#utility.yul\":4631:4632   */\n      0x00\n        /* \"#utility.yul\":4624:4712   */\n      mstore\n        /* \"#utility.yul\":4731:4735   */\n      0x22\n        /* \"#utility.yul\":4728:4729   */\n      0x04\n        /* \"#utility.yul\":4721:4736   */\n      mstore\n        /* \"#utility.yul\":4755:4759   */\n      0x24\n        /* \"#utility.yul\":4752:4753   */\n      0x00\n        /* \"#utility.yul\":4745:4760   */\n      revert\n        /* \"#utility.yul\":4772:5092   */\n    tag_52:\n        /* \"#utility.yul\":4816:4822   */\n      0x00\n        /* \"#utility.yul\":4853:4854   */\n      0x02\n        /* \"#utility.yul\":4847:4851   */\n      dup3\n        /* \"#utility.yul\":4843:4855   */\n      div\n        /* \"#utility.yul\":4833:4855   */\n      swap1\n      pop\n        /* \"#utility.yul\":4900:4901   */\n      0x01\n        /* \"#utility.yul\":4894:4898   */\n      dup3\n        /* \"#utility.yul\":4890:4902   */\n      and\n        /* \"#utility.yul\":4921:4939   */\n      dup1\n        /* \"#utility.yul\":4911:4992   */\n      tag_150\n      jumpi\n        /* \"#utility.yul\":4977:4981   */\n      0x7f\n        /* \"#utility.yul\":4969:4975   */\n      dup3\n        /* \"#utility.yul\":4965:4982   */\n      and\n        /* \"#utility.yul\":4955:4982   */\n      swap2\n      pop\n        /* \"#utility.yul\":4911:4992   */\n    tag_150:\n        /* \"#utility.yul\":5039:5041   */\n      0x20\n        /* \"#utility.yul\":5031:5037   */\n      dup3\n        /* \"#utility.yul\":5028:5042   */\n      lt\n        /* \"#utility.yul\":5008:5026   */\n      dup2\n        /* \"#utility.yul\":5005:5043   */\n      sub\n        /* \"#utility.yul\":5002:5086   */\n      tag_151\n      jumpi\n        /* \"#utility.yul\":5058:5076   */\n      tag_152\n      tag_78\n      jump\t// in\n    tag_152:\n        /* \"#utility.yul\":5002:5086   */\n    tag_151:\n        /* \"#utility.yul\":4823:5092   */\n      pop\n        /* \"#utility.yul\":4772:5092   */\n      swap2\n      swap1\n      pop\n      jump\t// out\n        /* \"#utility.yul\":5098:5239   */\n    tag_79:\n        /* \"#utility.yul\":5147:5151   */\n      0x00\n        /* \"#utility.yul\":5170:5173   */\n      dup2\n        /* \"#utility.yul\":5162:5173   */\n      swap1\n      pop\n        /* \"#utility.yul\":5193:5196   */\n      dup2\n        /* \"#utility.yul\":5190:5191   */\n      0x00\n        /* \"#utility.yul\":5183:5197   */\n      mstore\n        /* \"#utility.yul\":5227:5231   */\n      0x20\n        /* \"#utility.yul\":5224:5225   */\n      0x00\n        /* \"#utility.yul\":5214:5232   */\n      keccak256\n        /* \"#utility.yul\":5206:5232   */\n      swap1\n      pop\n        /* \"#utility.yul\":5098:5239   */\n      swap2\n      swap1\n      pop\n      jump\t// out\n        /* \"#utility.yul\":5245:5338   */\n    tag_80:\n        /* \"#utility.yul\":5282:5288   */\n      0x00\n        /* \"#utility.yul\":5329:5331   */\n      0x20\n        /* \"#utility.yul\":5324:5326   */\n      0x1f\n        /* \"#utility.yul\":5317:5322   */\n      dup4\n        /* \"#utility.yul\":5313:5327   */\n      add\n        /* \"#utility.yul\":5309:5332   */\n      div\n        /* \"#utility.yul\":5299:5332   */\n      swap1\n      pop\n        /* \"#utility.yul\":5245:5338   */\n      swap2\n      swap1\n      pop\n      jump\t// out\n        /* \"#utility.yul\":5344:5451   */\n    tag_81:\n        /* \"#utility.yul\":5388:5396   */\n      0x00\n        /* \"#utility.yul\":5438:5443   */\n      dup3\n        /* \"#utility.yul\":5432:5436   */\n      dup3\n        /* \"#utility.yul\":5428:5444   */\n      shl\n        /* \"#utility.yul\":5407:5444   */\n      swap1\n      pop\n        /* \"#utility.yul\":5344:5451   */\n      swap3\n      swap2\n      pop\n      pop\n      jump\t// out\n        /* \"#utility.yul\":5457:5850   */\n    tag_82:\n        /* \"#utility.yul\":5526:5532   */\n      0x00\n        /* \"#utility.yul\":5576:5577   */\n      0x08\n        /* \"#utility.yul\":5564:5574   */\n      dup4\n        /* \"#utility.yul\":5560:5578   */\n      mul\n        /* \"#utility.yul\":5599:5696   */\n      tag_157\n        /* \"#utility.yul\":5629:5695   */\n      0xffffffffffffffffffffffffffffffffffffffffffffffffffffffffffffffff\n        /* \"#utility.yul\":5618:5627   */\n      dup3\n        /* \"#utility.yul\":5599:5696   */\n      tag_81\n      jump\t// in\n    tag_157:\n        /* \"#utility.yul\":5717:5756   */\n      tag_158\n        /* \"#utility.yul\":5747:5755   */\n      dup7\n        /* \"#utility.yul\":5736:5745   */\n      dup4\n        /* \"#utility.yul\":5717:5756   */\n      tag_81\n      jump\t// in\n    tag_158:\n        /* \"#utility.yul\":5705:5756   */\n      swap6\n      pop\n        /* \"#utility.yul\":5789:5793   */\n      dup1\n        /* \"#utility.yul\":5785:5794   */\n      not\n        /* \"#utility.yul\":5778:5783   */\n      dup5\n        /* \"#utility.yul\":5774:5795   */\n      and\n        /* \"#utility.yul\":5765:5795   */\n      swap4\n      pop\n        /* \"#utility.yul\":5838:5842   */\n      dup1\n        /* \"#utility.yul\":5828:5836   */\n      dup7\n        /* \"#utility.yul\":5824:5843   */\n      and\n        /* \"#utility.yul\":5817:5822   */\n      dup5\n        /* \"#utility.yul\":5814:5844   */\n      or\n        /* \"#utility.yul\":5804:5844   */\n      swap3\n      pop\n        /* \"#utility.yul\":5533:5850   */\n      pop\n      pop\n        /* \"#utility.yul\":5457:5850   */\n      swap4\n      swap3\n      pop\n      pop\n      pop\n      jump\t// out\n        /* \"#utility.yul\":5856:5916   */\n    tag_83:\n        /* \"#utility.yul\":5884:5887   */\n      0x00\n        /* \"#utility.yul\":5905:5910   */\n      dup2\n        /* \"#utility.yul\":5898:5910   */\n      swap1\n      pop\n        /* \"#utility.yul\":5856:5916   */\n      swap2\n      swap1\n      pop\n      jump\t// out\n        /* \"#utility.yul\":5922:6064   */\n    tag_84:\n        /* \"#utility.yul\":5972:5981   */\n      0x00\n        /* \"#utility.yul\":6005:6058   */\n      tag_161\n        /* \"#utility.yul\":6023:6057   */\n      tag_162\n        /* \"#utility.yul\":6032:6056   */\n      tag_163\n        /* \"#utility.yul\":6050:6055   */\n      dup5\n        /* \"#utility.yul\":6032:6056   */\n      tag_72\n      jump\t// in\n    tag_163:\n        /* \"#utility.yul\":6023:6057   */\n      tag_83\n      jump\t// in\n    tag_162:\n        /* \"#utility.yul\":6005:6058   */\n      tag_72\n      jump\t// in\n    tag_161:\n        /* \"#utility.yul\":5992:6058   */\n      swap1\n      pop\n        /* \"#utility.yul\":5922:6064   */\n      swap2\n      swap1\n      pop\n      jump\t// out\n        /* \"#utility.yul\":6070:6145   */\n    tag_85:\n        /* \"#utility.yul\":6113:6116   */\n      0x00\n        /* \"#utility.yul\":6134:6139   */\n      dup2\n        /* \"#utility.yul\":6127:6139   */\n      swap1\n      pop\n        /* \"#utility.yul\":6070:6145   */\n      swap2\n      swap1\n      pop\n      jump\t// out\n        /* \"#utility.yul\":6151:6420   */\n    tag_86:\n        /* \"#utility.yul\":6261:6300   */\n      tag_166\n        /* \"#utility.yul\":6292:6299   */\n      dup4\n        /* \"#utility.yul\":6261:6300   */\n      tag_84\n      jump\t// in\n    tag_166:\n        /* \"#utility.yul\":6322:6413   */\n      tag_167\n        /* \"#utility.yul\":6371:6412   */\n      tag_168\n        /* \"#utility.yul\":6395:6411   */\n      dup3\n        /* \"#utility.yul\":6371:6412   */\n      tag_85\n      jump\t// in\n    tag_168:\n        /* \"#utility.yul\":6363:6369   */\n      dup5\n        /* \"#utility.yul\":6356:6360   */\n      dup5\n        /* \"#utility.yul\":6350:6361   */\n      sload\n        /* \"#utility.yul\":6322:6413   */\n      tag_82\n      jump\t// in\n    tag_167:\n        /* \"#utility.yul\":6316:6320   */\n      dup3\n        /* \"#utility.yul\":6309:6414   */\n      sstore\n        /* \"#utility.yul\":6227:6420   */\n      pop\n        /* \"#utility.yul\":6151:6420   */\n      pop\n      pop\n      pop\n      jump\t// out\n        /* \"#utility.yul\":6426:6499   */\n    tag_87:\n        /* \"#utility.yul\":6471:6474   */\n      0x00\n        /* \"#utility.yul\":6492:6493   */\n      0x00\n        /* \"#utility.yul\":6485:6493   */\n      swap1\n      pop\n        /* \"#utility.yul\":6426:6499   */\n      swap1\n      jump\t// out\n        /* \"#utility.yul\":6505:6694   */\n    tag_88:\n        /* \"#utility.yul\":6582:6614   */\n      tag_171\n      tag_87\n      jump\t// in\n    tag_171:\n        /* \"#utility.yul\":6623:6688   */\n      tag_172\n        /* \"#utility.yul\":6681:6687   */\n      dup2\n        /* \"#utility.yul\":6673:6679   */\n      dup5\n        /* \"#utility.yul\":6667:6671   */\n      dup5\n        /* \"#utility.yul\":6623:6688   */\n      tag_86\n      jump\t// in\n    tag_172:\n        /* \"#utility.yul\":6558:6694   */\n      pop\n        /* \"#utility.yul\":6505:6694   */\n      pop\n      pop\n      jump\t// out\n        /* \"#utility.yul\":6700:6886   */\n    tag_89:\n        /* \"#utility.yul\":6760:6880   */\n    tag_174:\n        /* \"#utility.yul\":6777:6780   */\n      dup2\n        /* \"#utility.yul\":6770:6775   */\n      dup2\n        /* \"#utility.yul\":6767:6781   */\n      lt\n        /* \"#utility.yul\":6760:6880   */\n      iszero\n      tag_176\n      jumpi\n        /* \"#utility.yul\":6831:6870   */\n      tag_177\n        /* \"#utility.yul\":6868:6869   */\n      0x00\n        /* \"#utility.yul\":6861:6866   */\n      dup3\n        /* \"#utility.yul\":6831:6870   */\n      tag_88\n      jump\t// in\n    tag_177:\n        /* \"#utility.yul\":6804:6805   */\n      0x01\n        /* \"#utility.yul\":6797:6802   */\n      dup2\n        /* \"#utility.yul\":6793:6806   */\n      add\n        /* \"#utility.yul\":6784:6806   */\n      swap1\n      pop\n        /* \"#utility.yul\":6760:6880   */\n      jump(tag_174)\n    tag_176:\n        /* \"#utility.yul\":6700:6886   */\n      pop\n      pop\n      jump\t// out\n        /* \"#utility.yul\":6892:7435   */\n    tag_90:\n        /* \"#utility.yul\":6993:6995   */\n      0x1f\n        /* \"#utility.yul\":6988:6991   */\n      dup3\n        /* \"#utility.yul\":6985:6996   */\n      gt\n        /* \"#utility.yul\":6982:7428   */\n      iszero\n      tag_179\n      jumpi\n        /* \"#utility.yul\":7027:7065   */\n      tag_180\n        /* \"#utility.yul\":7059:7064   */\n      dup2\n        /* \"#utility.yul\":7027:7065   */\n      tag_79\n      jump\t// in\n    tag_180:\n        /* \"#utility.yul\":7111:7140   */\n      tag_181\n        /* \"#utility.yul\":7129:7139   */\n      dup5\n        /* \"#utility.yul\":7111:7140   */\n      tag_80\n      jump\t// in\n    tag_181:\n        /* \"#utility.yul\":7101:7109   */\n      dup2\n        /* \"#utility.yul\":7097:7141   */\n      add\n        /* \"#utility.yul\":7294:7296   */\n      0x20\n        /* \"#utility.yul\":7282:7292   */\n      dup6\n        /* \"#utility.yul\":7279:7297   */\n      lt\n        /* \"#utility.yul\":7276:7325   */\n      iszero\n      tag_182\n      jumpi\n        /* \"#utility.yul\":7315:7323   */\n      dup2\n        /* \"#utility.yul\":7300:7323   */\n      swap1\n      pop\n        /* \"#utility.yul\":7276:7325   */\n    tag_182:\n        /* \"#utility.yul\":7338:7418   */\n      tag_183\n        /* \"#utility.yul\":7394:7416   */\n      tag_184\n        /* \"#utility.yul\":7412:7415   */\n      dup6\n        /* \"#utility.yul\":7394:7416   */\n      tag_80\n      jump\t// in\n    tag_184:\n        /* \"#utility.yul\":7384:7392   */\n      dup4\n        /* \"#utility.yul\":7380:7417   */\n      add\n        /* \"#utility.yul\":7367:7378   */\n      dup3\n        /* \"#utility.yul\":7338:7418   */\n      tag_89\n      jump\t// in\n    tag_183:\n        /* \"#utility.yul\":6997:7428   */\n      pop\n      pop\n        /* \"#utility.yul\":6982:7428   */\n    tag_179:\n        /* \"#utility.yul\":6892:7435   */\n      pop\n      pop\n      pop\n      jump\t// out\n        /* \"#utility.yul\":7441:7558   */\n    tag_91:\n        /* \"#utility.yul\":7495:7503   */\n      0x00\n        /* \"#utility.yul\":7545:7550   */\n      dup3\n        /* \"#utility.yul\":7539:7543   */\n      dup3\n        /* \"#utility.yul\":7535:7551   */\n      shr\n        /* \"#utility.yul\":7514:7551   */\n      swap1\n      pop\n        /* \"#utility.yul\":7441:7558   */\n      swap3\n      swap2\n      pop\n      pop\n      jump\t// out\n        /* \"#utility.yul\":7564:7733   */\n    tag_92:\n        /* \"#utility.yul\":7608:7614   */\n      0x00\n        /* \"#utility.yul\":7641:7692   */\n      tag_187\n        /* \"#utility.yul\":7689:7690   */\n      0x00\n        /* \"#utility.yul\":7685:7691   */\n      not\n        /* \"#utility.yul\":7677:7682   */\n      dup5\n        /* \"#utility.yul\":7674:7675   */\n      0x08\n        /* \"#utility.yul\":7670:7683   */\n      mul\n        /* \"#utility.yul\":7641:7692   */\n      tag_91\n      jump\t// in\n    tag_187:\n        /* \"#utility.yul\":7637:7693   */\n      not\n        /* \"#utility.yul\":7722:7726   */\n      dup1\n        /* \"#utility.yul\":7716:7720   */\n      dup4\n        /* \"#utility.yul\":7712:7727   */\n      and\n        /* \"#utility.yul\":7702:7727   */\n      swap2\n      pop\n        /* \"#utility.yul\":7615:7733   */\n      pop\n        /* \"#utility.yul\":7564:7733   */\n      swap3\n      swap2\n      pop\n      pop\n      jump\t// out\n        /* \"#utility.yul\":7738:8033   */\n    tag_93:\n        /* \"#utility.yul\":7814:7818   */\n      0x00\n        /* \"#utility.yul\":7960:7989   */\n      tag_189\n        /* \"#utility.yul\":7985:7988   */\n      dup4\n        /* \"#utility.yul\":7979:7983   */\n      dup4\n        /* \"#utility.yul\":7960:7989   */\n      tag_92\n      jump\t// in\n    tag_189:\n        /* \"#utility.yul\":7952:7989   */\n      swap2\n      pop\n        /* \"#utility.yul\":8022:8025   */\n      dup3\n        /* \"#utility.yul\":8019:8020   */\n      0x02\n        /* \"#utility.yul\":8015:8026   */\n      mul\n        /* \"#utility.yul\":8009:8013   */\n      dup3\n        /* \"#utility.yul\":8006:8027   */\n      or\n        /* \"#utility.yul\":7998:8027   */\n      swap1\n      pop\n        /* \"#utility.yul\":7738:8033   */\n      swap3\n      swap2\n      pop\n      pop\n      jump\t// out\n        /* \"#utility.yul\":8038:9433   */\n    tag_25:\n        /* \"#utility.yul\":8155:8192   */\n      tag_191\n        /* \"#utility.yul\":8188:8191   */\n      dup3\n        /* \"#utility.yul\":8155:8192   */\n      tag_74\n      jump\t// in\n    tag_191:\n        /* \"#utility.yul\":8257:8275   */\n      0xffffffffffffffff\n        /* \"#utility.yul\":8249:8255   */\n      dup2\n        /* \"#utility.yul\":8246:8276   */\n      gt\n        /* \"#utility.yul\":8243:8299   */\n      iszero\n      tag_192\n      jumpi\n        /* \"#utility.yul\":8279:8297   */\n      tag_193\n      tag_65\n      jump\t// in\n    tag_193:\n        /* \"#utility.yul\":8243:8299   */\n    tag_192:\n        /* \"#utility.yul\":8323:8361   */\n      tag_194\n        /* \"#utility.yul\":8355:8359   */\n      dup3\n        /* \"#utility.yul\":8349:8360   */\n      sload\n        /* \"#utility.yul\":8323:8361   */\n      tag_52\n      jump\t// in\n    tag_194:\n        /* \"#utility.yul\":8408:8475   */\n      tag_195\n        /* \"#utility.yul\":8468:8474   */\n      dup3\n        /* \"#utility.yul\":8460:8466   */\n      dup3\n        /* \"#utility.yul\":8454:8458   */\n      dup6\n        /* \"#utility.yul\":8408:8475   */\n      tag_90\n      jump\t// in\n    tag_195:\n        /* \"#utility.yul\":8502:8503   */\n      0x00\n        /* \"#utility.yul\":8526:8530   */\n      0x20\n        /* \"#utility.yul\":8513:8530   */\n      swap1\n      pop\n        /* \"#utility.yul\":8558:8560   */\n      0x1f\n        /* \"#utility.yul\":8550:8556   */\n      dup4\n        /* \"#utility.yul\":8547:8561   */\n      gt\n        /* \"#utility.yul\":8575:8576   */\n      0x01\n        /* \"#utility.yul\":8570:9188   */\n      dup2\n      eq\n      tag_197\n      jumpi\n        /* \"#utility.yul\":9232:9233   */\n      0x00\n        /* \"#utility.yul\":9249:9255   */\n      dup5\n        /* \"#utility.yul\":9246:9323   */\n      iszero\n      tag_198\n      jumpi\n        /* \"#utility.yul\":9298:9307   */\n      dup3\n        /* \"#utility.yul\":9293:9296   */\n      dup8\n        /* \"#utility.yul\":9289:9308   */\n      add\n        /* \"#utility.yul\":9283:9309   */\n      mload\n        /* \"#utility.yul\":9274:9309   */\n      swap1\n      pop\n        /* \"#utility.yul\":9246:9323   */\n    tag_198:\n        /* \"#utility.yul\":9349:9416   */\n      tag_199\n        /* \"#utility.yul\":9409:9415   */\n      dup6\n        /* \"#utility.yul\":9402:9407   */\n      dup3\n        /* \"#utility.yul\":9349:9416   */\n      tag_93\n      jump\t// in\n    tag_199:\n        /* \"#utility.yul\":9343:9347   */\n      dup7\n        /* \"#utility.yul\":9336:9417   */\n      sstore\n        /* \"#utility.yul\":9205:9427   */\n      pop\n        /* \"#utility.yul\":8540:9427   */\n      jump(tag_196)\n        /* \"#utility.yul\":8570:9188   */\n    tag_197:\n        /* \"#utility.yul\":8622:8626   */\n      0x1f\n        /* \"#utility.yul\":8618:8627   */\n      not\n        /* \"#utility.yul\":8610:8616   */\n      dup5\n        /* \"#utility.yul\":8606:8628   */\n      and\n        /* \"#utility.yul\":8656:8693   */\n      tag_200\n        /* \"#utility.yul\":8688:8692   */\n      dup7\n        /* \"#utility.yul\":8656:8693   */\n      tag_79\n      jump\t// in\n    tag_200:\n        /* \"#utility.yul\":8715:8716   */\n      0x00\n        /* \"#utility.yul\":8729:8937   */\n    tag_201:\n        /* \"#utility.yul\":8743:8750   */\n      dup3\n        /* \"#utility.yul\":8740:8741   */\n      dup2\n        /* \"#utility.yul\":8737:8751   */\n      lt\n        /* \"#utility.yul\":8729:8937   */\n      iszero\n      tag_203\n      jumpi\n        /* \"#utility.yul\":8822:8831   */\n      dup5\n        /* \"#utility.yul\":8817:8820   */\n      dup10\n        /* \"#utility.yul\":8813:8832   */\n      add\n        /* \"#utility.yul\":8807:8833   */\n      mload\n        /* \"#utility.yul\":8799:8805   */\n      dup3\n        /* \"#utility.yul\":8792:8834   */\n      sstore\n        /* \"#utility.yul\":8873:8874   */\n      0x01\n        /* \"#utility.yul\":8865:8871   */\n      dup3\n        /* \"#utility.yul\":8861:8875   */\n      add\n        /* \"#utility.yul\":8851:8875   */\n      swap2\n      pop\n        /* \"#utility.yul\":8920:8922   */\n      0x20\n        /* \"#utility.yul\":8909:8918   */\n      dup6\n        /* \"#utility.yul\":8905:8923   */\n      add\n        /* \"#utility.yul\":8892:8923   */\n      swap5\n      pop\n        /* \"#utility.yul\":8766:8770   */\n      0x20\n        /* \"#utility.yul\":8763:8764   */\n      dup2\n        /* \"#utility.yul\":8759:8771   */\n      add\n        /* \"#utility.yul\":8754:8771   */\n      swap1\n      pop\n        /* \"#utility.yul\":8729:8937   */\n      jump(tag_201)\n    tag_203:\n        /* \"#utility.yul\":8965:8971   */\n      dup7\n        /* \"#utility.yul\":8956:8963   */\n      dup4\n        /* \"#utility.yul\":8953:8972   */\n      lt\n        /* \"#utility.yul\":8950:9129   */\n      iszero\n      tag_204\n      jumpi\n        /* \"#utility.yul\":9023:9032   */\n      dup5\n        /* \"#utility.yul\":9018:9021   */\n      dup10\n        /* \"#utility.yul\":9014:9033   */\n      add\n        /* \"#utility.yul\":9008:9034   */\n      mload\n        /* \"#utility.yul\":9066:9114   */\n      tag_205\n        /* \"#utility.yul\":9108:9112   */\n      0x1f\n        /* \"#utility.yul\":9100:9106   */\n      dup10\n        /* \"#utility.yul\":9096:9113   */\n      and\n        /* \"#utility.yul\":9085:9094   */\n      dup3\n        /* \"#utility.yul\":9066:9114   */\n      tag_92\n      jump\t// in\n    tag_205:\n        /* \"#utility.yul\":9058:9064   */\n      dup4\n        /* \"#utility.yul\":9051:9115   */\n      sstore\n        /* \"#utility.yul\":8973:9129   */\n      pop\n        /* \"#utility.yul\":8950:9129   */\n    tag_204:\n        /* \"#utility.yul\":9175:9176   */\n      0x01\n        /* \"#utility.yul\":9171:9172   */\n      0x02\n        /* \"#utility.yul\":9163:9169   */\n      dup9\n        /* \"#utility.yul\":9159:9173   */\n      mul\n        /* \"#utility.yul\":9155:9177   */\n      add\n        /* \"#utility.yul\":9149:9153   */\n      dup9\n        /* \"#utility.yul\":9142:9178   */\n      sstore\n        /* \"#utility.yul\":8577:9188   */\n      pop\n      pop\n      pop\n        /* \"#utility.yul\":8540:9427   */\n    tag_196:\n      pop\n        /* \"#utility.yul\":8130:9433   */\n      pop\n      pop\n      pop\n        /* \"#utility.yul\":8038:9433   */\n      pop\n      pop\n      jump\t// out\n        /* \"#utility.yul\":9439:9619   */\n    tag_94:\n        /* \"#utility.yul\":9487:9564   */\n      0x4e487b7100000000000000000000000000000000000000000000000000000000\n        /* \"#utility.yul\":9484:9485   */\n      0x00\n        /* \"#utility.yul\":9477:9565   */\n      mstore\n        /* \"#utility.yul\":9584:9588   */\n      0x11\n        /* \"#utility.yul\":9581:9582   */\n      0x04\n        /* \"#utility.yul\":9574:9589   */\n      mstore\n        /* \"#utility.yul\":9608:9612   */\n      0x24\n        /* \"#utility.yul\":9605:9606   */\n      0x00\n        /* \"#utility.yul\":9598:9613   */\n      revert\n        /* \"#utility.yul\":9625:9858   */\n    tag_28:\n        /* \"#utility.yul\":9664:9667   */\n      0x00\n        /* \"#utility.yul\":9687:9711   */\n      tag_208\n        /* \"#utility.yul\":9705:9710   */\n      dup3\n        /* \"#utility.yul\":9687:9711   */\n      tag_72\n      jump\t// in\n    tag_208:\n        /* \"#utility.yul\":9678:9711   */\n      swap2\n      pop\n        /* \"#utility.yul\":9733:9799   */\n      0xffffffffffffffffffffffffffffffffffffffffffffffffffffffffffffffff\n        /* \"#utility.yul\":9726:9731   */\n      dup3\n        /* \"#utility.yul\":9723:9800   */\n      sub\n        /* \"#utility.yul\":9720:9823   */\n      tag_209\n      jumpi\n        /* \"#utility.yul\":9803:9821   */\n      tag_210\n      tag_94\n      jump\t// in\n    tag_210:\n        /* \"#utility.yul\":9720:9823   */\n    tag_209:\n        /* \"#utility.yul\":9850:9851   */\n      0x01\n        /* \"#utility.yul\":9843:9848   */\n      dup3\n        /* \"#utility.yul\":9839:9852   */\n      add\n        /* \"#utility.yul\":9832:9852   */\n      swap1\n      pop\n        /* \"#utility.yul\":9625:9858   */\n      swap2\n      swap1\n      pop\n      jump\t// out\n        /* \"#utility.yul\":9864:10033   */\n    tag_95:\n        /* \"#utility.yul\":9948:9959   */\n      0x00\n        /* \"#utility.yul\":9982:9988   */\n      dup3\n        /* \"#utility.yul\":9977:9980   */\n      dup3\n        /* \"#utility.yul\":9970:9989   */\n      mstore\n        /* \"#utility.yul\":10022:10026   */\n      0x20\n        /* \"#utility.yul\":10017:10020   */\n      dup3\n        /* \"#utility.yul\":10013:10027   */\n      add\n        /* \"#utility.yul\":9998:10027   */\n      swap1\n      pop\n        /* \"#utility.yul\":9864:10033   */\n      swap3\n      swap2\n      pop\n      pop\n      jump\t// out\n        /* \"#utility.yul\":10039:10416   */\n    tag_96:\n        /* \"#utility.yul\":10127:10130   */\n      0x00\n        /* \"#utility.yul\":10155:10194   */\n      tag_213\n        /* \"#utility.yul\":10188:10193   */\n      dup3\n        /* \"#utility.yul\":10155:10194   */\n      tag_74\n      jump\t// in\n    tag_213:\n        /* \"#utility.yul\":10210:10281   */\n      tag_214\n        /* \"#utility.yul\":10274:10280   */\n      dup2\n        /* \"#utility.yul\":10269:10272   */\n      dup6\n        /* \"#utility.yul\":10210:10281   */\n      tag_95\n      jump\t// in\n    tag_214:\n        /* \"#utility.yul\":10203:10281   */\n      swap4\n      pop\n        /* \"#utility.yul\":10290:10355   */\n      tag_215\n        /* \"#utility.yul\":10348:10354   */\n      dup2\n        /* \"#utility.yul\":10343:10346   */\n      dup6\n        /* \"#utility.yul\":10336:10340   */\n      0x20\n        /* \"#utility.yul\":10329:10334   */\n      dup7\n        /* \"#utility.yul\":10325:10341   */\n      add\n        /* \"#utility.yul\":10290:10355   */\n      tag_76\n      jump\t// in\n    tag_215:\n        /* \"#utility.yul\":10380:10409   */\n      tag_216\n        /* \"#utility.yul\":10402:10408   */\n      dup2\n        /* \"#utility.yul\":10380:10409   */\n      tag_64\n      jump\t// in\n    tag_216:\n        /* \"#utility.yul\":10375:10378   */\n      dup5\n        /* \"#utility.yul\":10371:10410   */\n      add\n        /* \"#utility.yul\":10364:10410   */\n      swap2\n      pop\n        /* \"#utility.yul\":10131:10416   */\n      pop\n        /* \"#utility.yul\":10039:10416   */\n      swap3\n      swap2\n      pop\n      pop\n      jump\t// out\n        /* \"#utility.yul\":10422:10845   */\n    tag_31:\n        /* \"#utility.yul\":10563:10567   */\n      0x00\n        /* \"#utility.yul\":10601:10603   */\n      0x40\n        /* \"#utility.yul\":10590:10599   */\n      dup3\n        /* \"#utility.yul\":10586:10604   */\n      add\n        /* \"#utility.yul\":10578:10604   */\n      swap1\n      pop\n        /* \"#utility.yul\":10650:10659   */\n      dup2\n        /* \"#utility.yul\":10644:10648   */\n      dup2\n        /* \"#utility.yul\":10640:10660   */\n      sub\n        /* \"#utility.yul\":10636:10637   */\n      0x00\n        /* \"#utility.yul\":10625:10634   */\n      dup4\n        /* \"#utility.yul\":10621:10638   */\n      add\n        /* \"#utility.yul\":10614:10661   */\n      mstore\n        /* \"#utility.yul\":10678:10756   */\n      tag_218\n        /* \"#utility.yul\":10751:10755   */\n      dup2\n        /* \"#utility.yul\":10742:10748   */\n      dup6\n        /* \"#utility.yul\":10678:10756   */\n      tag_96\n      jump\t// in\n    tag_218:\n        /* \"#utility.yul\":10670:10756   */\n      swap1\n      pop\n        /* \"#utility.yul\":10766:10838   */\n      tag_219\n        /* \"#utility.yul\":10834:10836   */\n      0x20\n        /* \"#utility.yul\":10823:10832   */\n      dup4\n        /* \"#utility.yul\":10819:10837   */\n      add\n        /* \"#utility.yul\":10810:10816   */\n      dup5\n        /* \"#utility.yul\":10766:10838   */\n      tag_73\n      jump\t// in\n    tag_219:\n        /* \"#utility.yul\":10422:10845   */\n      swap4\n      swap3\n      pop\n      pop\n      pop\n      jump\t// out\n        /* \"#utility.yul\":10851:11031   */\n    tag_38:\n        /* \"#utility.yul\":10899:10976   */\n      0x4e487b7100000000000000000000000000000000000000000000000000000000\n        /* \"#utility.yul\":10896:10897   */\n      0x00\n        /* \"#utility.yul\":10889:10977   */\n      mstore\n        /* \"#utility.yul\":10996:11000   */\n      0x32\n        /* \"#utility.yul\":10993:10994   */\n      0x04\n        /* \"#utility.yul\":10986:11001   */\n      mstore\n        /* \"#utility.yul\":11020:11024   */\n      0x24\n        /* \"#utility.yul\":11017:11018   */\n      0x00\n        /* \"#utility.yul\":11010:11025   */\n      revert\n        /* \"#utility.yul\":11061:11935   */\n    tag_97:\n        /* \"#utility.yul\":11164:11167   */\n      0x00\n        /* \"#utility.yul\":11201:11206   */\n      dup2\n        /* \"#utility.yul\":11195:11207   */\n      sload\n        /* \"#utility.yul\":11230:11266   */\n      tag_222\n        /* \"#utility.yul\":11256:11265   */\n      dup2\n        /* \"#utility.yul\":11230:11266   */\n      tag_52\n      jump\t// in\n    tag_222:\n        /* \"#utility.yul\":11282:11371   */\n      tag_223\n        /* \"#utility.yul\":11364:11370   */\n      dup2\n        /* \"#utility.yul\":11359:11362   */\n      dup7\n        /* \"#utility.yul\":11282:11371   */\n      tag_75\n      jump\t// in\n    tag_223:\n        /* \"#utility.yul\":11275:11371   */\n      swap5\n      pop\n        /* \"#utility.yul\":11402:11403   */\n      0x01\n        /* \"#utility.yul\":11391:11400   */\n      dup3\n        /* \"#utility.yul\":11387:11404   */\n      and\n        /* \"#utility.yul\":11418:11419   */\n      0x00\n        /* \"#utility.yul\":11413:11579   */\n      dup2\n      eq\n      tag_225\n      jumpi\n        /* \"#utility.yul\":11593:11594   */\n      0x01\n        /* \"#utility.yul\":11588:11929   */\n      dup2\n      eq\n      tag_226\n      jumpi\n        /* \"#utility.yul\":11380:11929   */\n      jump(tag_224)\n        /* \"#utility.yul\":11413:11579   */\n    tag_225:\n        /* \"#utility.yul\":11497:11501   */\n      0xff\n        /* \"#utility.yul\":11493:11502   */\n      not\n        /* \"#utility.yul\":11482:11491   */\n      dup4\n        /* \"#utility.yul\":11478:11503   */\n      and\n        /* \"#utility.yul\":11473:11476   */\n      dup7\n        /* \"#utility.yul\":11466:11504   */\n      mstore\n        /* \"#utility.yul\":11559:11565   */\n      dup2\n        /* \"#utility.yul\":11552:11566   */\n      iszero\n        /* \"#utility.yul\":11545:11567   */\n      iszero\n        /* \"#utility.yul\":11537:11543   */\n      dup3\n        /* \"#utility.yul\":11533:11568   */\n      mul\n        /* \"#utility.yul\":11528:11531   */\n      dup7\n        /* \"#utility.yul\":11524:11569   */\n      add\n        /* \"#utility.yul\":11517:11569   */\n      swap4\n      pop\n        /* \"#utility.yul\":11413:11579   */\n      jump(tag_224)\n        /* \"#utility.yul\":11588:11929   */\n    tag_226:\n        /* \"#utility.yul\":11655:11693   */\n      tag_227\n        /* \"#utility.yul\":11687:11692   */\n      dup6\n        /* \"#utility.yul\":11655:11693   */\n      tag_79\n      jump\t// in\n    tag_227:\n        /* \"#utility.yul\":11715:11716   */\n      0x00\n        /* \"#utility.yul\":11729:11883   */\n    tag_228:\n        /* \"#utility.yul\":11743:11749   */\n      dup4\n        /* \"#utility.yul\":11740:11741   */\n      dup2\n        /* \"#utility.yul\":11737:11750   */\n      lt\n        /* \"#utility.yul\":11729:11883   */\n      iszero\n      tag_230\n      jumpi\n        /* \"#utility.yul\":11817:11824   */\n      dup2\n        /* \"#utility.yul\":11811:11825   */\n      sload\n        /* \"#utility.yul\":11807:11808   */\n      dup2\n        /* \"#utility.yul\":11802:11805   */\n      dup10\n        /* \"#utility.yul\":11798:11809   */\n      add\n        /* \"#utility.yul\":11791:11826   */\n      mstore\n        /* \"#utility.yul\":11867:11868   */\n      0x01\n        /* \"#utility.yul\":11858:11865   */\n      dup3\n        /* \"#utility.yul\":11854:11869   */\n      add\n        /* \"#utility.yul\":11843:11869   */\n      swap2\n      pop\n        /* \"#utility.yul\":11765:11769   */\n      0x20\n        /* \"#utility.yul\":11762:11763   */\n      dup2\n        /* \"#utility.yul\":11758:11770   */\n      add\n        /* \"#utility.yul\":11753:11770   */\n      swap1\n      pop\n        /* \"#utility.yul\":11729:11883   */\n      jump(tag_228)\n    tag_230:\n        /* \"#utility.yul\":11912:11918   */\n      dup4\n        /* \"#utility.yul\":11907:11910   */\n      dup9\n        /* \"#utility.yul\":11903:11919   */\n      add\n        /* \"#utility.yul\":11896:11919   */\n      swap6\n      pop\n        /* \"#utility.yul\":11595:11929   */\n      pop\n      pop\n        /* \"#utility.yul\":11380:11929   */\n    tag_224:\n      pop\n        /* \"#utility.yul\":11168:11935   */\n      pop\n      pop\n        /* \"#utility.yul\":11061:11935   */\n      swap3\n      swap2\n      pop\n      pop\n      jump\t// out\n        /* \"#utility.yul\":11941:12210   */\n    tag_41:\n        /* \"#utility.yul\":12070:12073   */\n      0x00\n        /* \"#utility.yul\":12092:12184   */\n      tag_232\n        /* \"#utility.yul\":12180:12183   */\n      dup3\n        /* \"#utility.yul\":12171:12177   */\n      dup5\n        /* \"#utility.yul\":12092:12184   */\n      tag_97\n      jump\t// in\n    tag_232:\n        /* \"#utility.yul\":12085:12184   */\n      swap2\n      pop\n        /* \"#utility.yul\":12201:12204   */\n      dup2\n        /* \"#utility.yul\":12194:12204   */\n      swap1\n      pop\n        /* \"#utility.yul\":11941:12210   */\n      swap3\n      swap2\n      pop\n      pop\n      jump\t// out\n\n    auxdata: 0xa26469706673582212203c92b459bf745b6bb8e36ddd6a929db465e96766105f4230b89304ce843839ee64736f6c634300081e0033\n}\n",
				"bytecode": {
					"linkReferences": {},
					"object": "6080604052348015600e575f5ffd5b5061099e8061001c5f395ff3fe608060405234801561000f575f5ffd5b506004361061003f575f3560e01c8063228197ad14610043578063323082d714610073578063ed92f5c01461008f575b5f5ffd5b61005d6004803603810190610058919061040f565b610099565b60405161006a919061046e565b60405180910390f35b61008d6004803603810190610088919061040f565b6100bf565b005b6100976101b8565b005b5f5f826040516100a991906104d9565b9081526020016040518091039020549050919050565b5f5f826040516100cf91906104d9565b9081526020016040518091039020540361011657600181908060018154018082558091505060019003905f5260205f20015f90919091909150908161011491906106ec565b505b5f8160405161012591906104d9565b90815260200160405180910390205f815480929190610143906107e8565b91905055503373ffffffffffffffffffffffffffffffffffffffff167f35b4034b2bbe10bb07b21969c986794a6276a531bb155886a9f883bb5c9dc8e8825f8460405161019091906104d9565b9081526020016040518091039020546040516101ad929190610877565b60405180910390a250565b5f60018054905090505f5f90505b81811015610218575f5f600183815481106101e4576101e36108a5565b5b905f5260205f20016040516101f99190610952565b90815260200160405180910390208190555080806001019150506101c6565b5060015f6102269190610229565b50565b5080545f8255905f5260205f20908101906102449190610247565b50565b5b80821115610266575f818161025d919061026a565b50600101610248565b5090565b5080546102769061051c565b5f825580601f1061028757506102a4565b601f0160209004905f5260205f20908101906102a391906102a7565b5b50565b5b808211156102be575f815f9055506001016102a8565b5090565b5f604051905090565b5f5ffd5b5f5ffd5b5f5ffd5b5f5ffd5b5f601f19601f8301169050919050565b7f4e487b71000000000000000000000000000000000000000000000000000000005f52604160045260245ffd5b610321826102db565b810181811067ffffffffffffffff821117156103405761033f6102eb565b5b80604052505050565b5f6103526102c2565b905061035e8282610318565b919050565b5f67ffffffffffffffff82111561037d5761037c6102eb565b5b610386826102db565b9050602081019050919050565b828183375f83830152505050565b5f6103b36103ae84610363565b610349565b9050828152602081018484840111156103cf576103ce6102d7565b5b6103da848285610393565b509392505050565b5f82601f8301126103f6576103f56102d3565b5b81356104068482602086016103a1565b91505092915050565b5f60208284031215610424576104236102cb565b5b5f82013567ffffffffffffffff811115610441576104406102cf565b5b61044d848285016103e2565b91505092915050565b5f819050919050565b61046881610456565b82525050565b5f6020820190506104815f83018461045f565b92915050565b5f81519050919050565b5f81905092915050565b8281835e5f83830152505050565b5f6104b382610487565b6104bd8185610491565b93506104cd81856020860161049b565b80840191505092915050565b5f6104e482846104a9565b915081905092915050565b7f4e487b71000000000000000000000000000000000000000000000000000000005f52602260045260245ffd5b5f600282049050600182168061053357607f821691505b602082108103610546576105456104ef565b5b50919050565b5f819050815f5260205f209050919050565b5f6020601f8301049050919050565b5f82821b905092915050565b5f600883026105a87fffffffffffffffffffffffffffffffffffffffffffffffffffffffffffffffff8261056d565b6105b2868361056d565b95508019841693508086168417925050509392505050565b5f819050919050565b5f6105ed6105e86105e384610456565b6105ca565b610456565b9050919050565b5f819050919050565b610606836105d3565b61061a610612826105f4565b848454610579565b825550505050565b5f5f905090565b610631610622565b61063c8184846105fd565b505050565b5b8181101561065f576106545f82610629565b600181019050610642565b5050565b601f8211156106a4576106758161054c565b61067e8461055e565b8101602085101561068d578190505b6106a16106998561055e565b830182610641565b50505b505050565b5f82821c905092915050565b5f6106c45f19846008026106a9565b1980831691505092915050565b5f6106dc83836106b5565b9150826002028217905092915050565b6106f582610487565b67ffffffffffffffff81111561070e5761070d6102eb565b5b610718825461051c565b610723828285610663565b5f60209050601f831160018114610754575f8415610742578287015190505b61074c85826106d1565b8655506107b3565b601f1984166107628661054c565b5f5b8281101561078957848901518255600182019150602085019450602081019050610764565b868310156107a657848901516107a2601f8916826106b5565b8355505b6001600288020188555050505b505050505050565b7f4e487b71000000000000000000000000000000000000000000000000000000005f52601160045260245ffd5b5f6107f282610456565b91507fffffffffffffffffffffffffffffffffffffffffffffffffffffffffffffffff8203610824576108236107bb565b5b600182019050919050565b5f82825260208201905092915050565b5f61084982610487565b610853818561082f565b935061086381856020860161049b565b61086c816102db565b840191505092915050565b5f6040820190508181035f83015261088f818561083f565b905061089e602083018461045f565b9392505050565b7f4e487b71000000000000000000000000000000000000000000000000000000005f52603260045260245ffd5b5f81546108de8161051c565b6108e88186610491565b9450600182165f8114610902576001811461091757610949565b60ff1983168652811515820286019350610949565b6109208561054c565b5f5b8381101561094157815481890152600182019150602081019050610922565b838801955050505b50505092915050565b5f61095d82846108d2565b91508190509291505056fea26469706673582212203c92b459bf745b6bb8e36ddd6a929db465e96766105f4230b89304ce843839ee64736f6c634300081e0033",
					"opcodes": "PUSH1 0x80 PUSH1 0x40 MSTORE CALLVALUE DUP1 ISZERO PUSH1 0xE JUMPI PUSH0 PUSH0 REVERT JUMPDEST POP PUSH2 0x99E DUP1 PUSH2 0x1C PUSH0 CODECOPY PUSH0 RETURN INVALID PUSH1 0x80 PUSH1 0x40 MSTORE CALLVALUE DUP1 ISZERO PUSH2 0xF JUMPI PUSH0 PUSH0 REVERT JUMPDEST POP PUSH1 0x4 CALLDATASIZE LT PUSH2 0x3F JUMPI PUSH0 CALLDATALOAD PUSH1 0xE0 SHR DUP1 PUSH4 0x228197AD EQ PUSH2 0x43 JUMPI DUP1 PUSH4 0x323082D7 EQ PUSH2 0x73 JUMPI DUP1 PUSH4 0xED92F5C0 EQ PUSH2 0x8F JUMPI JUMPDEST PUSH0 PUSH0 REVERT JUMPDEST PUSH2 0x5D PUSH1 0x4 DUP1 CALLDATASIZE SUB DUP2 ADD SWAP1 PUSH2 0x58 SWAP2 SWAP1 PUSH2 0x40F JUMP JUMPDEST PUSH2 0x99 JUMP JUMPDEST PUSH1 0x40 MLOAD PUSH2 0x6A SWAP2 SWAP1 PUSH2 0x46E JUMP JUMPDEST PUSH1 0x40 MLOAD DUP1 SWAP2 SUB SWAP1 RETURN JUMPDEST PUSH2 0x8D PUSH1 0x4 DUP1 CALLDATASIZE SUB DUP2 ADD SWAP1 PUSH2 0x88 SWAP2 SWAP1 PUSH2 0x40F JUMP JUMPDEST PUSH2 0xBF JUMP JUMPDEST STOP JUMPDEST PUSH2 0x97 PUSH2 0x1B8 JUMP JUMPDEST STOP JUMPDEST PUSH0 PUSH0 DUP3 PUSH1 0x40 MLOAD PUSH2 0xA9 SWAP2 SWAP1 PUSH2 0x4D9 JUMP JUMPDEST SWAP1 DUP2 MSTORE PUSH1 0x20 ADD PUSH1 0x40 MLOAD DUP1 SWAP2 SUB SWAP1 KECCAK256 SLOAD SWAP1 POP SWAP2 SWAP1 POP JUMP JUMPDEST PUSH0 PUSH0 DUP3 PUSH1 0x40 MLOAD PUSH2 0xCF SWAP2 SWAP1 PUSH2 0x4D9 JUMP JUMPDEST SWAP1 DUP2 MSTORE PUSH1 0x20 ADD PUSH1 0x40 MLOAD DUP1 SWAP2 SUB SWAP1 KECCAK256 SLOAD SUB PUSH2 0x116 JUMPI PUSH1 0x1 DUP2 SWAP1 DUP1 PUSH1 0x1 DUP2 SLOAD ADD DUP1 DUP3 SSTORE DUP1 SWAP2 POP POP PUSH1 0x1 SWAP1 SUB SWAP1 PUSH0 MSTORE PUSH1 0x20 PUSH0 KECCAK256 ADD PUSH0 SWAP1 SWAP2 SWAP1 SWAP2 SWAP1 SWAP2 POP SWAP1 DUP2 PUSH2 0x114 SWAP2 SWAP1 PUSH2 0x6EC JUMP JUMPDEST POP JUMPDEST PUSH0 DUP2 PUSH1 0x40 MLOAD PUSH2 0x125 SWAP2 SWAP1 PUSH2 0x4D9 JUMP JUMPDEST SWAP1 DUP2 MSTORE PUSH1 0x20 ADD PUSH1 0x40 MLOAD DUP1 SWAP2 SUB SWAP1 KECCAK256 PUSH0 DUP2 SLOAD DUP1 SWAP3 SWAP2 SWAP1 PUSH2 0x143 SWAP1 PUSH2 0x7E8 JUMP JUMPDEST SWAP2 SWAP1 POP SSTORE POP CALLER PUSH20 0xFFFFFFFFFFFFFFFFFFFFFFFFFFFFFFFFFFFFFFFF AND PUSH32 0x35B4034B2BBE10BB07B21969C986794A6276A531BB155886A9F883BB5C9DC8E8 DUP3 PUSH0 DUP5 PUSH1 0x40 MLOAD PUSH2 0x190 SWAP2 SWAP1 PUSH2 0x4D9 JUMP JUMPDEST SWAP1 DUP2 MSTORE PUSH1 0x20 ADD PUSH1 0x40 MLOAD DUP1 SWAP2 SUB SWAP1 KECCAK256 SLOAD PUSH1 0x40 MLOAD PUSH2 0x1AD SWAP3 SWAP2 SWAP1 PUSH2 0x877 JUMP JUMPDEST PUSH1 0x40 MLOAD DUP1 SWAP2 SUB SWAP1 LOG2 POP JUMP JUMPDEST PUSH0 PUSH1 0x1 DUP1 SLOAD SWAP1 POP SWAP1 POP PUSH0 PUSH0 SWAP1 POP JUMPDEST DUP2 DUP2 LT ISZERO PUSH2 0x218 JUMPI PUSH0 PUSH0 PUSH1 0x1 DUP4 DUP2 SLOAD DUP2 LT PUSH2 0x1E4 JUMPI PUSH2 0x1E3 PUSH2 0x8A5 JUMP JUMPDEST JUMPDEST SWAP1 PUSH0 MSTORE PUSH1 0x20 PUSH0 KECCAK256 ADD PUSH1 0x40 MLOAD PUSH2 0x1F9 SWAP2 SWAP1 PUSH2 0x952 JUMP JUMPDEST SWAP1 DUP2 MSTORE PUSH1 0x20 ADD PUSH1 0x40 MLOAD DUP1 SWAP2 SUB SWAP1 KECCAK256 DUP2 SWAP1 SSTORE POP DUP1 DUP1 PUSH1 0x1 ADD SWAP2 POP POP PUSH2 0x1C6 JUMP JUMPDEST POP PUSH1 0x1 PUSH0 PUSH2 0x226 SWAP2 SWAP1 PUSH2 0x229 JUMP JUMPDEST POP JUMP JUMPDEST POP DUP1 SLOAD PUSH0 DUP3 SSTORE SWAP1 PUSH0 MSTORE PUSH1 0x20 PUSH0 KECCAK256 SWAP1 DUP2 ADD SWAP1 PUSH2 0x244 SWAP2 SWAP1 PUSH2 0x247 JUMP JUMPDEST POP JUMP JUMPDEST JUMPDEST DUP1 DUP3 GT ISZERO PUSH2 0x266 JUMPI PUSH0 DUP2 DUP2 PUSH2 0x25D SWAP2 SWAP1 PUSH2 0x26A JUMP JUMPDEST POP PUSH1 0x1 ADD PUSH2 0x248 JUMP JUMPDEST POP SWAP1 JUMP JUMPDEST POP DUP1 SLOAD PUSH2 0x276 SWAP1 PUSH2 0x51C JUMP JUMPDEST PUSH0 DUP3 SSTORE DUP1 PUSH1 0x1F LT PUSH2 0x287 JUMPI POP PUSH2 0x2A4 JUMP JUMPDEST PUSH1 0x1F ADD PUSH1 0x20 SWAP1 DIV SWAP1 PUSH0 MSTORE PUSH1 0x20 PUSH0 KECCAK256 SWAP1 DUP2 ADD SWAP1 PUSH2 0x2A3 SWAP2 SWAP1 PUSH2 0x2A7 JUMP JUMPDEST JUMPDEST POP JUMP JUMPDEST JUMPDEST DUP1 DUP3 GT ISZERO PUSH2 0x2BE JUMPI PUSH0 DUP2 PUSH0 SWAP1 SSTORE POP PUSH1 0x1 ADD PUSH2 0x2A8 JUMP JUMPDEST POP SWAP1 JUMP JUMPDEST PUSH0 PUSH1 0x40 MLOAD SWAP1 POP SWAP1 JUMP JUMPDEST PUSH0 PUSH0 REVERT JUMPDEST PUSH0 PUSH0 REVERT JUMPDEST PUSH0 PUSH0 REVERT JUMPDEST PUSH0 PUSH0 REVERT JUMPDEST PUSH0 PUSH1 0x1F NOT PUSH1 0x1F DUP4 ADD AND SWAP1 POP SWAP2 SWAP1 POP JUMP JUMPDEST PUSH32 0x4E487B7100000000000000000000000000000000000000000000000000000000 PUSH0 MSTORE PUSH1 0x41 PUSH1 0x4 MSTORE PUSH1 0x24 PUSH0 REVERT JUMPDEST PUSH2 0x321 DUP3 PUSH2 0x2DB JUMP JUMPDEST DUP2 ADD DUP2 DUP2 LT PUSH8 0xFFFFFFFFFFFFFFFF DUP3 GT OR ISZERO PUSH2 0x340 JUMPI PUSH2 0x33F PUSH2 0x2EB JUMP JUMPDEST JUMPDEST DUP1 PUSH1 0x40 MSTORE POP POP POP JUMP JUMPDEST PUSH0 PUSH2 0x352 PUSH2 0x2C2 JUMP JUMPDEST SWAP1 POP PUSH2 0x35E DUP3 DUP3 PUSH2 0x318 JUMP JUMPDEST SWAP2 SWAP1 POP JUMP JUMPDEST PUSH0 PUSH8 0xFFFFFFFFFFFFFFFF DUP3 GT ISZERO PUSH2 0x37D JUMPI PUSH2 0x37C PUSH2 0x2EB JUMP JUMPDEST JUMPDEST PUSH2 0x386 DUP3 PUSH2 0x2DB JUMP JUMPDEST SWAP1 POP PUSH1 0x20 DUP2 ADD SWAP1 POP SWAP2 SWAP1 POP JUMP JUMPDEST DUP3 DUP2 DUP4 CALLDATACOPY PUSH0 DUP4 DUP4 ADD MSTORE POP POP POP JUMP JUMPDEST PUSH0 PUSH2 0x3B3 PUSH2 0x3AE DUP5 PUSH2 0x363 JUMP JUMPDEST PUSH2 0x349 JUMP JUMPDEST SWAP1 POP DUP3 DUP2 MSTORE PUSH1 0x20 DUP2 ADD DUP5 DUP5 DUP5 ADD GT ISZERO PUSH2 0x3CF JUMPI PUSH2 0x3CE PUSH2 0x2D7 JUMP JUMPDEST JUMPDEST PUSH2 0x3DA DUP5 DUP3 DUP6 PUSH2 0x393 JUMP JUMPDEST POP SWAP4 SWAP3 POP POP POP JUMP JUMPDEST PUSH0 DUP3 PUSH1 0x1F DUP4 ADD SLT PUSH2 0x3F6 JUMPI PUSH2 0x3F5 PUSH2 0x2D3 JUMP JUMPDEST JUMPDEST DUP2 CALLDATALOAD PUSH2 0x406 DUP5 DUP3 PUSH1 0x20 DUP7 ADD PUSH2 0x3A1 JUMP JUMPDEST SWAP2 POP POP SWAP3 SWAP2 POP POP JUMP JUMPDEST PUSH0 PUSH1 0x20 DUP3 DUP5 SUB SLT ISZERO PUSH2 0x424 JUMPI PUSH2 0x423 PUSH2 0x2CB JUMP JUMPDEST JUMPDEST PUSH0 DUP3 ADD CALLDATALOAD PUSH8 0xFFFFFFFFFFFFFFFF DUP2 GT ISZERO PUSH2 0x441 JUMPI PUSH2 0x440 PUSH2 0x2CF JUMP JUMPDEST JUMPDEST PUSH2 0x44D DUP5 DUP3 DUP6 ADD PUSH2 0x3E2 JUMP JUMPDEST SWAP2 POP POP SWAP3 SWAP2 POP POP JUMP JUMPDEST PUSH0 DUP2 SWAP1 POP SWAP2 SWAP1 POP JUMP JUMPDEST PUSH2 0x468 DUP2 PUSH2 0x456 JUMP JUMPDEST DUP3 MSTORE POP POP JUMP JUMPDEST PUSH0 PUSH1 0x20 DUP3 ADD SWAP1 POP PUSH2 0x481 PUSH0 DUP4 ADD DUP5 PUSH2 0x45F JUMP JUMPDEST SWAP3 SWAP2 POP POP JUMP JUMPDEST PUSH0 DUP2 MLOAD SWAP1 POP SWAP2 SWAP1 POP JUMP JUMPDEST PUSH0 DUP2 SWAP1 POP SWAP3 SWAP2 POP POP JUMP JUMPDEST DUP3 DUP2 DUP4 MCOPY PUSH0 DUP4 DUP4 ADD MSTORE POP POP POP JUMP JUMPDEST PUSH0 PUSH2 0x4B3 DUP3 PUSH2 0x487 JUMP JUMPDEST PUSH2 0x4BD DUP2 DUP6 PUSH2 0x491 JUMP JUMPDEST SWAP4 POP PUSH2 0x4CD DUP2 DUP6 PUSH1 0x20 DUP7 ADD PUSH2 0x49B JUMP JUMPDEST DUP1 DUP5 ADD SWAP2 POP POP SWAP3 SWAP2 POP POP JUMP JUMPDEST PUSH0 PUSH2 0x4E4 DUP3 DUP5 PUSH2 0x4A9 JUMP JUMPDEST SWAP2 POP DUP2 SWAP1 POP SWAP3 SWAP2 POP POP JUMP JUMPDEST PUSH32 0x4E487B7100000000000000000000000000000000000000000000000000000000 PUSH0 MSTORE PUSH1 0x22 PUSH1 0x4 MSTORE PUSH1 0x24 PUSH0 REVERT JUMPDEST PUSH0 PUSH1 0x2 DUP3 DIV SWAP1 POP PUSH1 0x1 DUP3 AND DUP1 PUSH2 0x533 JUMPI PUSH1 0x7F DUP3 AND SWAP2 POP JUMPDEST PUSH1 0x20 DUP3 LT DUP2 SUB PUSH2 0x546 JUMPI PUSH2 0x545 PUSH2 0x4EF JUMP JUMPDEST JUMPDEST POP SWAP2 SWAP1 POP JUMP JUMPDEST PUSH0 DUP2 SWAP1 POP DUP2 PUSH0 MSTORE PUSH1 0x20 PUSH0 KECCAK256 SWAP1 POP SWAP2 SWAP1 POP JUMP JUMPDEST PUSH0 PUSH1 0x20 PUSH1 0x1F DUP4 ADD DIV SWAP1 POP SWAP2 SWAP1 POP JUMP JUMPDEST PUSH0 DUP3 DUP3 SHL SWAP1 POP SWAP3 SWAP2 POP POP JUMP JUMPDEST PUSH0 PUSH1 0x8 DUP4 MUL PUSH2 0x5A8 PUSH32 0xFFFFFFFFFFFFFFFFFFFFFFFFFFFFFFFFFFFFFFFFFFFFFFFFFFFFFFFFFFFFFFFF DUP3 PUSH2 0x56D JUMP JUMPDEST PUSH2 0x5B2 DUP7 DUP4 PUSH2 0x56D JUMP JUMPDEST SWAP6 POP DUP1 NOT DUP5 AND SWAP4 POP DUP1 DUP7 AND DUP5 OR SWAP3 POP POP POP SWAP4 SWAP3 POP POP POP JUMP JUMPDEST PUSH0 DUP2 SWAP1 POP SWAP2 SWAP1 POP JUMP JUMPDEST PUSH0 PUSH2 0x5ED PUSH2 0x5E8 PUSH2 0x5E3 DUP5 PUSH2 0x456 JUMP JUMPDEST PUSH2 0x5CA JUMP JUMPDEST PUSH2 0x456 JUMP JUMPDEST SWAP1 POP SWAP2 SWAP1 POP JUMP JUMPDEST PUSH0 DUP2 SWAP1 POP SWAP2 SWAP1 POP JUMP JUMPDEST PUSH2 0x606 DUP4 PUSH2 0x5D3 JUMP JUMPDEST PUSH2 0x61A PUSH2 0x612 DUP3 PUSH2 0x5F4 JUMP JUMPDEST DUP5 DUP5 SLOAD PUSH2 0x579 JUMP JUMPDEST DUP3 SSTORE POP POP POP POP JUMP JUMPDEST PUSH0 PUSH0 SWAP1 POP SWAP1 JUMP JUMPDEST PUSH2 0x631 PUSH2 0x622 JUMP JUMPDEST PUSH2 0x63C DUP2 DUP5 DUP5 PUSH2 0x5FD JUMP JUMPDEST POP POP POP JUMP JUMPDEST JUMPDEST DUP2 DUP2 LT ISZERO PUSH2 0x65F JUMPI PUSH2 0x654 PUSH0 DUP3 PUSH2 0x629 JUMP JUMPDEST PUSH1 0x1 DUP2 ADD SWAP1 POP PUSH2 0x642 JUMP JUMPDEST POP POP JUMP JUMPDEST PUSH1 0x1F DUP3 GT ISZERO PUSH2 0x6A4 JUMPI PUSH2 0x675 DUP2 PUSH2 0x54C JUMP JUMPDEST PUSH2 0x67E DUP5 PUSH2 0x55E JUMP JUMPDEST DUP2 ADD PUSH1 0x20 DUP6 LT ISZERO PUSH2 0x68D JUMPI DUP2 SWAP1 POP JUMPDEST PUSH2 0x6A1 PUSH2 0x699 DUP6 PUSH2 0x55E JUMP JUMPDEST DUP4 ADD DUP3 PUSH2 0x641 JUMP JUMPDEST POP POP JUMPDEST POP POP POP JUMP JUMPDEST PUSH0 DUP3 DUP3 SHR SWAP1 POP SWAP3 SWAP2 POP POP JUMP JUMPDEST PUSH0 PUSH2 0x6C4 PUSH0 NOT DUP5 PUSH1 0x8 MUL PUSH2 0x6A9 JUMP JUMPDEST NOT DUP1 DUP4 AND SWAP2 POP POP SWAP3 SWAP2 POP POP JUMP JUMPDEST PUSH0 PUSH2 0x6DC DUP4 DUP4 PUSH2 0x6B5 JUMP JUMPDEST SWAP2 POP DUP3 PUSH1 0x2 MUL DUP3 OR SWAP1 POP SWAP3 SWAP2 POP POP JUMP JUMPDEST PUSH2 0x6F5 DUP3 PUSH2 0x487 JUMP JUMPDEST PUSH8 0xFFFFFFFFFFFFFFFF DUP2 GT ISZERO PUSH2 0x70E JUMPI PUSH2 0x70D PUSH2 0x2EB JUMP JUMPDEST JUMPDEST PUSH2 0x718 DUP3 SLOAD PUSH2 0x51C JUMP JUMPDEST PUSH2 0x723 DUP3 DUP3 DUP6 PUSH2 0x663 JUMP JUMPDEST PUSH0 PUSH1 0x20 SWAP1 POP PUSH1 0x1F DUP4 GT PUSH1 0x1 DUP2 EQ PUSH2 0x754 JUMPI PUSH0 DUP5 ISZERO PUSH2 0x742 JUMPI DUP3 DUP8 ADD MLOAD SWAP1 POP JUMPDEST PUSH2 0x74C DUP6 DUP3 PUSH2 0x6D1 JUMP JUMPDEST DUP7 SSTORE POP PUSH2 0x7B3 JUMP JUMPDEST PUSH1 0x1F NOT DUP5 AND PUSH2 0x762 DUP7 PUSH2 0x54C JUMP JUMPDEST PUSH0 JUMPDEST DUP3 DUP2 LT ISZERO PUSH2 0x789 JUMPI DUP5 DUP10 ADD MLOAD DUP3 SSTORE PUSH1 0x1 DUP3 ADD SWAP2 POP PUSH1 0x20 DUP6 ADD SWAP5 POP PUSH1 0x20 DUP2 ADD SWAP1 POP PUSH2 0x764 JUMP JUMPDEST DUP7 DUP4 LT ISZERO PUSH2 0x7A6 JUMPI DUP5 DUP10 ADD MLOAD PUSH2 0x7A2 PUSH1 0x1F DUP10 AND DUP3 PUSH2 0x6B5 JUMP JUMPDEST DUP4 SSTORE POP JUMPDEST PUSH1 0x1 PUSH1 0x2 DUP9 MUL ADD DUP9 SSTORE POP POP POP JUMPDEST POP POP POP POP POP POP JUMP JUMPDEST PUSH32 0x4E487B7100000000000000000000000000000000000000000000000000000000 PUSH0 MSTORE PUSH1 0x11 PUSH1 0x4 MSTORE PUSH1 0x24 PUSH0 REVERT JUMPDEST PUSH0 PUSH2 0x7F2 DUP3 PUSH2 0x456 JUMP JUMPDEST SWAP2 POP PUSH32 0xFFFFFFFFFFFFFFFFFFFFFFFFFFFFFFFFFFFFFFFFFFFFFFFFFFFFFFFFFFFFFFFF DUP3 SUB PUSH2 0x824 JUMPI PUSH2 0x823 PUSH2 0x7BB JUMP JUMPDEST JUMPDEST PUSH1 0x1 DUP3 ADD SWAP1 POP SWAP2 SWAP1 POP JUMP JUMPDEST PUSH0 DUP3 DUP3 MSTORE PUSH1 0x20 DUP3 ADD SWAP1 POP SWAP3 SWAP2 POP POP JUMP JUMPDEST PUSH0 PUSH2 0x849 DUP3 PUSH2 0x487 JUMP JUMPDEST PUSH2 0x853 DUP2 DUP6 PUSH2 0x82F JUMP JUMPDEST SWAP4 POP PUSH2 0x863 DUP2 DUP6 PUSH1 0x20 DUP7 ADD PUSH2 0x49B JUMP JUMPDEST PUSH2 0x86C DUP2 PUSH2 0x2DB JUMP JUMPDEST DUP5 ADD SWAP2 POP POP SWAP3 SWAP2 POP POP JUMP JUMPDEST PUSH0 PUSH1 0x40 DUP3 ADD SWAP1 POP DUP2 DUP2 SUB PUSH0 DUP4 ADD MSTORE PUSH2 0x88F DUP2 DUP6 PUSH2 0x83F JUMP JUMPDEST SWAP1 POP PUSH2 0x89E PUSH1 0x20 DUP4 ADD DUP5 PUSH2 0x45F JUMP JUMPDEST SWAP4 SWAP3 POP POP POP JUMP JUMPDEST PUSH32 0x4E487B7100000000000000000000000000000000000000000000000000000000 PUSH0 MSTORE PUSH1 0x32 PUSH1 0x4 MSTORE PUSH1 0x24 PUSH0 REVERT JUMPDEST PUSH0 DUP2 SLOAD PUSH2 0x8DE DUP2 PUSH2 0x51C JUMP JUMPDEST PUSH2 0x8E8 DUP2 DUP7 PUSH2 0x491 JUMP JUMPDEST SWAP5 POP PUSH1 0x1 DUP3 AND PUSH0 DUP2 EQ PUSH2 0x902 JUMPI PUSH1 0x1 DUP2 EQ PUSH2 0x917 JUMPI PUSH2 0x949 JUMP JUMPDEST PUSH1 0xFF NOT DUP4 AND DUP7 MSTORE DUP2 ISZERO ISZERO DUP3 MUL DUP7 ADD SWAP4 POP PUSH2 0x949 JUMP JUMPDEST PUSH2 0x920 DUP6 PUSH2 0x54C JUMP JUMPDEST PUSH0 JUMPDEST DUP4 DUP2 LT ISZERO PUSH2 0x941 JUMPI DUP2 SLOAD DUP2 DUP10 ADD MSTORE PUSH1 0x1 DUP3 ADD SWAP2 POP PUSH1 0x20 DUP2 ADD SWAP1 POP PUSH2 0x922 JUMP JUMPDEST DUP4 DUP9 ADD SWAP6 POP POP POP JUMPDEST POP POP POP SWAP3 SWAP2 POP POP JUMP JUMPDEST PUSH0 PUSH2 0x95D DUP3 DUP5 PUSH2 0x8D2 JUMP JUMPDEST SWAP2 POP DUP2 SWAP1 POP SWAP3 SWAP2 POP POP JUMP INVALID LOG2 PUSH5 0x6970667358 0x22 SLT KECCAK256 EXTCODECOPY SWAP3 0xB4 MSIZE 0xBF PUSH21 0x5B6BB8E36DDD6A929DB465E96766105F4230B89304 0xCE DUP5 CODESIZE CODECOPY RETURNCONTRACT 0x64 PUSH20 0x6F6C634300081E00330000000000000000000000 "
				},
				"gasEstimates": {
					"creation": {
						"codeDepositCost": "492400",
						"executionCost": "522",
						"totalCost": "492922"
					},
					"external": {
						"GetVotes(string)": "infinite",
						"ResetVote()": "infinite",
						"Vote(string)": "infinite"
					}
				},
				"methodIdentifiers": {
					"GetVotes(string)": "228197ad",
					"ResetVote()": "ed92f5c0",
					"Vote(string)": "323082d7"
				}
			},
			"storageLayout": {
				"storage": [
					{
						"astId": 5,
						"contract": "Task1/Voting.sol:Voting",
						"label": "votes",
						"offset": 0,
						"slot": "0",
						"type": "t_mapping(t_string_memory_ptr,t_uint256)"
					},
					{
						"astId": 8,
						"contract": "Task1/Voting.sol:Voting",
						"label": "candidates",
						"offset": 0,
						"slot": "1",
						"type": "t_array(t_string_storage)dyn_storage"
					}
				],
				"types": {
					"t_array(t_string_storage)dyn_storage": {
						"base": "t_string_storage",
						"encoding": "dynamic_array",
						"label": "string[]",
						"numberOfBytes": "32"
					},
					"t_mapping(t_string_memory_ptr,t_uint256)": {
						"encoding": "mapping",
						"key": "t_string_memory_ptr",
						"label": "mapping(string => uint256)",
						"numberOfBytes": "32",
						"value": "t_uint256"
					},
					"t_string_memory_ptr": {
						"encoding": "bytes",
						"label": "string",
						"numberOfBytes": "32"
					},
					"t_string_storage": {
						"encoding": "bytes",
						"label": "string",
						"numberOfBytes": "32"
					},
					"t_uint256": {
						"encoding": "inplace",
						"label": "uint256",
						"numberOfBytes": "32"
					}
				}
			},
			"userdoc": {
				"kind": "user",
				"methods": {},
				"version": 1
			}
		}
	}
}