{
	"Task1/Roma_To_Int_Contract.sol": {
		"RomanToIntContract": {
			"abi": [
				{
					"inputs": [
						{
							"internalType": "string",
							"name": "s",
							"type": "string"
						}
					],
					"name": "romanToInt",
					"outputs": [
						{
							"internalType": "uint256",
							"name": "",
							"type": "uint256"
						}
					],
					"stateMutability": "pure",
					"type": "function"
				}
			],
			"devdoc": {
				"kind": "dev",
				"methods": {},
				"version": 1
			},
			"evm": {
				"assembly": "    /* \"Task1/Roma_To_Int_Contract.sol\":185:1876  contract RomanToIntContract {  //采用从右向左遍历的贪心算法... */\n  mstore(0x40, 0x80)\n  callvalue\n  dup1\n  iszero\n  tag_1\n  jumpi\n  revert(0x00, 0x00)\ntag_1:\n  pop\n  dataSize(sub_0)\n  dup1\n  dataOffset(sub_0)\n  0x00\n  codecopy\n  0x00\n  return\nstop\n\nsub_0: assembly {\n        /* \"Task1/Roma_To_Int_Contract.sol\":185:1876  contract RomanToIntContract {  //采用从右向左遍历的贪心算法... */\n      mstore(0x40, 0x80)\n      callvalue\n      dup1\n      iszero\n      tag_1\n      jumpi\n      revert(0x00, 0x00)\n    tag_1:\n      pop\n      jumpi(tag_2, lt(calldatasize, 0x04))\n      shr(0xe0, calldataload(0x00))\n      dup1\n      0xcb159dfe\n      eq\n      tag_3\n      jumpi\n    tag_2:\n      revert(0x00, 0x00)\n        /* \"Task1/Roma_To_Int_Contract.sol\":263:1476  function romanToInt(string memory s) public pure returns (uint256) {... */\n    tag_3:\n      tag_4\n      0x04\n      dup1\n      calldatasize\n      sub\n      dup2\n      add\n      swap1\n      tag_5\n      swap2\n      swap1\n      tag_6\n      jump\t// in\n    tag_5:\n      tag_7\n      jump\t// in\n    tag_4:\n      mload(0x40)\n      tag_8\n      swap2\n      swap1\n      tag_9\n      jump\t// in\n    tag_8:\n      mload(0x40)\n      dup1\n      swap2\n      sub\n      swap1\n      return\n    tag_7:\n        /* \"Task1/Roma_To_Int_Contract.sol\":321:328  uint256 */\n      0x00\n        /* \"Task1/Roma_To_Int_Contract.sol\":341:364  bytes memory romanBytes */\n      0x00\n        /* \"Task1/Roma_To_Int_Contract.sol\":373:374  s */\n      dup3\n        /* \"Task1/Roma_To_Int_Contract.sol\":341:375  bytes memory romanBytes = bytes(s) */\n      swap1\n      pop\n        /* \"Task1/Roma_To_Int_Contract.sol\":460:474  uint256 length */\n      0x00\n        /* \"Task1/Roma_To_Int_Contract.sol\":477:487  romanBytes */\n      dup2\n        /* \"Task1/Roma_To_Int_Contract.sol\":477:494  romanBytes.length */\n      mload\n        /* \"Task1/Roma_To_Int_Contract.sol\":460:494  uint256 length = romanBytes.length */\n      swap1\n      pop\n        /* \"Task1/Roma_To_Int_Contract.sol\":522:523  0 */\n      0x00\n        /* \"Task1/Roma_To_Int_Contract.sol\":513:519  length */\n      dup2\n        /* \"Task1/Roma_To_Int_Contract.sol\":513:523  length > 0 */\n      gt\n        /* \"Task1/Roma_To_Int_Contract.sol\":505:540  require(length > 0, \"Empty string\") */\n      tag_11\n      jumpi\n      mload(0x40)\n      0x08c379a000000000000000000000000000000000000000000000000000000000\n      dup2\n      mstore\n      0x04\n      add\n      tag_12\n      swap1\n      tag_13\n      jump\t// in\n    tag_12:\n      mload(0x40)\n      dup1\n      swap2\n      sub\n      swap1\n      revert\n    tag_11:\n        /* \"Task1/Roma_To_Int_Contract.sol\":633:647  uint256 result */\n      0x00\n        /* \"Task1/Roma_To_Int_Contract.sol\":650:651  0 */\n      0x00\n        /* \"Task1/Roma_To_Int_Contract.sol\":633:651  uint256 result = 0 */\n      swap1\n      pop\n        /* \"Task1/Roma_To_Int_Contract.sol\":662:679  uint256 prevValue */\n      0x00\n        /* \"Task1/Roma_To_Int_Contract.sol\":682:683  0 */\n      0x00\n        /* \"Task1/Roma_To_Int_Contract.sol\":662:683  uint256 prevValue = 0 */\n      swap1\n      pop\n        /* \"Task1/Roma_To_Int_Contract.sol\":759:768  uint256 i */\n      0x00\n        /* \"Task1/Roma_To_Int_Contract.sol\":771:777  length */\n      dup4\n        /* \"Task1/Roma_To_Int_Contract.sol\":759:777  uint256 i = length */\n      swap1\n      pop\n        /* \"Task1/Roma_To_Int_Contract.sol\":754:1435  for (uint256 i = length; i > 0; i--) {... */\n    tag_14:\n        /* \"Task1/Roma_To_Int_Contract.sol\":783:784  0 */\n      0x00\n        /* \"Task1/Roma_To_Int_Contract.sol\":779:780  i */\n      dup2\n        /* \"Task1/Roma_To_Int_Contract.sol\":779:784  i > 0 */\n      gt\n        /* \"Task1/Roma_To_Int_Contract.sol\":754:1435  for (uint256 i = length; i > 0; i--) {... */\n      iszero\n      tag_15\n      jumpi\n        /* \"Task1/Roma_To_Int_Contract.sol\":806:824  bytes1 currentChar */\n      0x00\n        /* \"Task1/Roma_To_Int_Contract.sol\":827:837  romanBytes */\n      dup6\n        /* \"Task1/Roma_To_Int_Contract.sol\":842:843  1 */\n      0x01\n        /* \"Task1/Roma_To_Int_Contract.sol\":838:839  i */\n      dup4\n        /* \"Task1/Roma_To_Int_Contract.sol\":838:843  i - 1 */\n      tag_17\n      swap2\n      swap1\n      tag_18\n      jump\t// in\n    tag_17:\n        /* \"Task1/Roma_To_Int_Contract.sol\":827:844  romanBytes[i - 1] */\n      dup2\n      mload\n      dup2\n      lt\n      tag_19\n      jumpi\n      tag_20\n      tag_21\n      jump\t// in\n    tag_20:\n    tag_19:\n      0x20\n      add\n      add\n      mload\n      0xf8\n      shr\n      0xf8\n      shl\n        /* \"Task1/Roma_To_Int_Contract.sol\":806:844  bytes1 currentChar = romanBytes[i - 1] */\n      swap1\n      pop\n        /* \"Task1/Roma_To_Int_Contract.sol\":978:998  uint256 currentValue */\n      0x00\n        /* \"Task1/Roma_To_Int_Contract.sol\":1001:1026  getCharValue(currentChar) */\n      tag_22\n        /* \"Task1/Roma_To_Int_Contract.sol\":1014:1025  currentChar */\n      dup3\n        /* \"Task1/Roma_To_Int_Contract.sol\":1001:1013  getCharValue */\n      tag_23\n        /* \"Task1/Roma_To_Int_Contract.sol\":1001:1026  getCharValue(currentChar) */\n      jump\t// in\n    tag_22:\n        /* \"Task1/Roma_To_Int_Contract.sol\":978:1026  uint256 currentValue = getCharValue(currentChar) */\n      swap1\n      pop\n        /* \"Task1/Roma_To_Int_Contract.sol\":1074:1083  prevValue */\n      dup4\n        /* \"Task1/Roma_To_Int_Contract.sol\":1059:1071  currentValue */\n      dup2\n        /* \"Task1/Roma_To_Int_Contract.sol\":1059:1083  currentValue < prevValue */\n      lt\n        /* \"Task1/Roma_To_Int_Contract.sol\":1055:1371  if (currentValue < prevValue) { // 当前值小于前值，执行减法（如IV中的I), 用法其实是最后一个字符对应的数（或运算后的数）与前一个字符数比较，大- 小+... */\n      iszero\n      tag_24\n      jumpi\n        /* \"Task1/Roma_To_Int_Contract.sol\":1280:1292  currentValue */\n      dup1\n        /* \"Task1/Roma_To_Int_Contract.sol\":1270:1292  result -= currentValue */\n      dup6\n      tag_25\n      swap2\n      swap1\n      tag_18\n      jump\t// in\n    tag_25:\n      swap5\n      pop\n        /* \"Task1/Roma_To_Int_Contract.sol\":1055:1371  if (currentValue < prevValue) { // 当前值小于前值，执行减法（如IV中的I), 用法其实是最后一个字符对应的数（或运算后的数）与前一个字符数比较，大- 小+... */\n      jump(tag_26)\n    tag_24:\n        /* \"Task1/Roma_To_Int_Contract.sol\":1343:1355  currentValue */\n      dup1\n        /* \"Task1/Roma_To_Int_Contract.sol\":1333:1355  result += currentValue */\n      dup6\n      tag_27\n      swap2\n      swap1\n      tag_28\n      jump\t// in\n    tag_27:\n      swap5\n      pop\n        /* \"Task1/Roma_To_Int_Contract.sol\":1055:1371  if (currentValue < prevValue) { // 当前值小于前值，执行减法（如IV中的I), 用法其实是最后一个字符对应的数（或运算后的数）与前一个字符数比较，大- 小+... */\n    tag_26:\n        /* \"Task1/Roma_To_Int_Contract.sol\":1411:1423  currentValue */\n      dup1\n        /* \"Task1/Roma_To_Int_Contract.sol\":1399:1423  prevValue = currentValue */\n      swap4\n      pop\n        /* \"Task1/Roma_To_Int_Contract.sol\":791:1435  {... */\n      pop\n      pop\n        /* \"Task1/Roma_To_Int_Contract.sol\":786:789  i-- */\n      dup1\n      dup1\n      tag_29\n      swap1\n      tag_30\n      jump\t// in\n    tag_29:\n      swap2\n      pop\n      pop\n        /* \"Task1/Roma_To_Int_Contract.sol\":754:1435  for (uint256 i = length; i > 0; i--) {... */\n      jump(tag_14)\n    tag_15:\n      pop\n        /* \"Task1/Roma_To_Int_Contract.sol\":1462:1468  result */\n      dup2\n        /* \"Task1/Roma_To_Int_Contract.sol\":1455:1468  return result */\n      swap5\n      pop\n      pop\n      pop\n      pop\n      pop\n        /* \"Task1/Roma_To_Int_Contract.sol\":263:1476  function romanToInt(string memory s) public pure returns (uint256) {... */\n      swap2\n      swap1\n      pop\n      jump\t// out\n        /* \"Task1/Roma_To_Int_Contract.sol\":1488:1867  function getCharValue(bytes1 char) private pure returns (uint256) {... */\n    tag_23:\n        /* \"Task1/Roma_To_Int_Contract.sol\":1545:1552  uint256 */\n      0x00\n        /* \"Task1/Roma_To_Int_Contract.sol\":1569:1580  char == 'I' */\n      0x4900000000000000000000000000000000000000000000000000000000000000\n        /* \"Task1/Roma_To_Int_Contract.sol\":1569:1573  char */\n      dup3\n        /* \"Task1/Roma_To_Int_Contract.sol\":1569:1580  char == 'I' */\n      not(0xffffffffffffffffffffffffffffffffffffffffffffffffffffffffffffff)\n      and\n      sub\n        /* \"Task1/Roma_To_Int_Contract.sol\":1565:1590  if (char == 'I') return 1 */\n      tag_32\n      jumpi\n        /* \"Task1/Roma_To_Int_Contract.sol\":1589:1590  1 */\n      0x01\n        /* \"Task1/Roma_To_Int_Contract.sol\":1582:1590  return 1 */\n      swap1\n      pop\n      jump(tag_31)\n        /* \"Task1/Roma_To_Int_Contract.sol\":1565:1590  if (char == 'I') return 1 */\n    tag_32:\n        /* \"Task1/Roma_To_Int_Contract.sol\":1605:1616  char == 'V' */\n      0x5600000000000000000000000000000000000000000000000000000000000000\n        /* \"Task1/Roma_To_Int_Contract.sol\":1605:1609  char */\n      dup3\n        /* \"Task1/Roma_To_Int_Contract.sol\":1605:1616  char == 'V' */\n      not(0xffffffffffffffffffffffffffffffffffffffffffffffffffffffffffffff)\n      and\n      sub\n        /* \"Task1/Roma_To_Int_Contract.sol\":1601:1626  if (char == 'V') return 5 */\n      tag_33\n      jumpi\n        /* \"Task1/Roma_To_Int_Contract.sol\":1625:1626  5 */\n      0x05\n        /* \"Task1/Roma_To_Int_Contract.sol\":1618:1626  return 5 */\n      swap1\n      pop\n      jump(tag_31)\n        /* \"Task1/Roma_To_Int_Contract.sol\":1601:1626  if (char == 'V') return 5 */\n    tag_33:\n        /* \"Task1/Roma_To_Int_Contract.sol\":1641:1652  char == 'X' */\n      0x5800000000000000000000000000000000000000000000000000000000000000\n        /* \"Task1/Roma_To_Int_Contract.sol\":1641:1645  char */\n      dup3\n        /* \"Task1/Roma_To_Int_Contract.sol\":1641:1652  char == 'X' */\n      not(0xffffffffffffffffffffffffffffffffffffffffffffffffffffffffffffff)\n      and\n      sub\n        /* \"Task1/Roma_To_Int_Contract.sol\":1637:1663  if (char == 'X') return 10 */\n      tag_34\n      jumpi\n        /* \"Task1/Roma_To_Int_Contract.sol\":1661:1663  10 */\n      0x0a\n        /* \"Task1/Roma_To_Int_Contract.sol\":1654:1663  return 10 */\n      swap1\n      pop\n      jump(tag_31)\n        /* \"Task1/Roma_To_Int_Contract.sol\":1637:1663  if (char == 'X') return 10 */\n    tag_34:\n        /* \"Task1/Roma_To_Int_Contract.sol\":1678:1689  char == 'L' */\n      0x4c00000000000000000000000000000000000000000000000000000000000000\n        /* \"Task1/Roma_To_Int_Contract.sol\":1678:1682  char */\n      dup3\n        /* \"Task1/Roma_To_Int_Contract.sol\":1678:1689  char == 'L' */\n      not(0xffffffffffffffffffffffffffffffffffffffffffffffffffffffffffffff)\n      and\n      sub\n        /* \"Task1/Roma_To_Int_Contract.sol\":1674:1700  if (char == 'L') return 50 */\n      tag_35\n      jumpi\n        /* \"Task1/Roma_To_Int_Contract.sol\":1698:1700  50 */\n      0x32\n        /* \"Task1/Roma_To_Int_Contract.sol\":1691:1700  return 50 */\n      swap1\n      pop\n      jump(tag_31)\n        /* \"Task1/Roma_To_Int_Contract.sol\":1674:1700  if (char == 'L') return 50 */\n    tag_35:\n        /* \"Task1/Roma_To_Int_Contract.sol\":1715:1726  char == 'C' */\n      0x4300000000000000000000000000000000000000000000000000000000000000\n        /* \"Task1/Roma_To_Int_Contract.sol\":1715:1719  char */\n      dup3\n        /* \"Task1/Roma_To_Int_Contract.sol\":1715:1726  char == 'C' */\n      not(0xffffffffffffffffffffffffffffffffffffffffffffffffffffffffffffff)\n      and\n      sub\n        /* \"Task1/Roma_To_Int_Contract.sol\":1711:1738  if (char == 'C') return 100 */\n      tag_36\n      jumpi\n        /* \"Task1/Roma_To_Int_Contract.sol\":1735:1738  100 */\n      0x64\n        /* \"Task1/Roma_To_Int_Contract.sol\":1728:1738  return 100 */\n      swap1\n      pop\n      jump(tag_31)\n        /* \"Task1/Roma_To_Int_Contract.sol\":1711:1738  if (char == 'C') return 100 */\n    tag_36:\n        /* \"Task1/Roma_To_Int_Contract.sol\":1753:1764  char == 'D' */\n      0x4400000000000000000000000000000000000000000000000000000000000000\n        /* \"Task1/Roma_To_Int_Contract.sol\":1753:1757  char */\n      dup3\n        /* \"Task1/Roma_To_Int_Contract.sol\":1753:1764  char == 'D' */\n      not(0xffffffffffffffffffffffffffffffffffffffffffffffffffffffffffffff)\n      and\n      sub\n        /* \"Task1/Roma_To_Int_Contract.sol\":1749:1776  if (char == 'D') return 500 */\n      tag_37\n      jumpi\n        /* \"Task1/Roma_To_Int_Contract.sol\":1773:1776  500 */\n      0x01f4\n        /* \"Task1/Roma_To_Int_Contract.sol\":1766:1776  return 500 */\n      swap1\n      pop\n      jump(tag_31)\n        /* \"Task1/Roma_To_Int_Contract.sol\":1749:1776  if (char == 'D') return 500 */\n    tag_37:\n        /* \"Task1/Roma_To_Int_Contract.sol\":1791:1802  char == 'M' */\n      0x4d00000000000000000000000000000000000000000000000000000000000000\n        /* \"Task1/Roma_To_Int_Contract.sol\":1791:1795  char */\n      dup3\n        /* \"Task1/Roma_To_Int_Contract.sol\":1791:1802  char == 'M' */\n      not(0xffffffffffffffffffffffffffffffffffffffffffffffffffffffffffffff)\n      and\n      sub\n        /* \"Task1/Roma_To_Int_Contract.sol\":1787:1815  if (char == 'M') return 1000 */\n      tag_38\n      jumpi\n        /* \"Task1/Roma_To_Int_Contract.sol\":1811:1815  1000 */\n      0x03e8\n        /* \"Task1/Roma_To_Int_Contract.sol\":1804:1815  return 1000 */\n      swap1\n      pop\n      jump(tag_31)\n        /* \"Task1/Roma_To_Int_Contract.sol\":1787:1815  if (char == 'M') return 1000 */\n    tag_38:\n        /* \"Task1/Roma_To_Int_Contract.sol\":1826:1859  revert(\"Invalid Roman character\") */\n      mload(0x40)\n      0x08c379a000000000000000000000000000000000000000000000000000000000\n      dup2\n      mstore\n      0x04\n      add\n      tag_39\n      swap1\n      tag_40\n      jump\t// in\n    tag_39:\n      mload(0x40)\n      dup1\n      swap2\n      sub\n      swap1\n      revert\n        /* \"Task1/Roma_To_Int_Contract.sol\":1488:1867  function getCharValue(bytes1 char) private pure returns (uint256) {... */\n    tag_31:\n      swap2\n      swap1\n      pop\n      jump\t// out\n        /* \"#utility.yul\":7:82   */\n    tag_41:\n        /* \"#utility.yul\":40:46   */\n      0x00\n        /* \"#utility.yul\":73:75   */\n      0x40\n        /* \"#utility.yul\":67:76   */\n      mload\n        /* \"#utility.yul\":57:76   */\n      swap1\n      pop\n        /* \"#utility.yul\":7:82   */\n      swap1\n      jump\t// out\n        /* \"#utility.yul\":88:205   */\n    tag_42:\n        /* \"#utility.yul\":197:198   */\n      0x00\n        /* \"#utility.yul\":194:195   */\n      0x00\n        /* \"#utility.yul\":187:199   */\n      revert\n        /* \"#utility.yul\":211:328   */\n    tag_43:\n        /* \"#utility.yul\":320:321   */\n      0x00\n        /* \"#utility.yul\":317:318   */\n      0x00\n        /* \"#utility.yul\":310:322   */\n      revert\n        /* \"#utility.yul\":334:451   */\n    tag_44:\n        /* \"#utility.yul\":443:444   */\n      0x00\n        /* \"#utility.yul\":440:441   */\n      0x00\n        /* \"#utility.yul\":433:445   */\n      revert\n        /* \"#utility.yul\":457:574   */\n    tag_45:\n        /* \"#utility.yul\":566:567   */\n      0x00\n        /* \"#utility.yul\":563:564   */\n      0x00\n        /* \"#utility.yul\":556:568   */\n      revert\n        /* \"#utility.yul\":580:682   */\n    tag_46:\n        /* \"#utility.yul\":621:627   */\n      0x00\n        /* \"#utility.yul\":672:674   */\n      0x1f\n        /* \"#utility.yul\":668:675   */\n      not\n        /* \"#utility.yul\":663:665   */\n      0x1f\n        /* \"#utility.yul\":656:661   */\n      dup4\n        /* \"#utility.yul\":652:666   */\n      add\n        /* \"#utility.yul\":648:676   */\n      and\n        /* \"#utility.yul\":638:676   */\n      swap1\n      pop\n        /* \"#utility.yul\":580:682   */\n      swap2\n      swap1\n      pop\n      jump\t// out\n        /* \"#utility.yul\":688:868   */\n    tag_47:\n        /* \"#utility.yul\":736:813   */\n      0x4e487b7100000000000000000000000000000000000000000000000000000000\n        /* \"#utility.yul\":733:734   */\n      0x00\n        /* \"#utility.yul\":726:814   */\n      mstore\n        /* \"#utility.yul\":833:837   */\n      0x41\n        /* \"#utility.yul\":830:831   */\n      0x04\n        /* \"#utility.yul\":823:838   */\n      mstore\n        /* \"#utility.yul\":857:861   */\n      0x24\n        /* \"#utility.yul\":854:855   */\n      0x00\n        /* \"#utility.yul\":847:862   */\n      revert\n        /* \"#utility.yul\":874:1155   */\n    tag_48:\n        /* \"#utility.yul\":957:984   */\n      tag_71\n        /* \"#utility.yul\":979:983   */\n      dup3\n        /* \"#utility.yul\":957:984   */\n      tag_46\n      jump\t// in\n    tag_71:\n        /* \"#utility.yul\":949:955   */\n      dup2\n        /* \"#utility.yul\":945:985   */\n      add\n        /* \"#utility.yul\":1087:1093   */\n      dup2\n        /* \"#utility.yul\":1075:1085   */\n      dup2\n        /* \"#utility.yul\":1072:1094   */\n      lt\n        /* \"#utility.yul\":1051:1069   */\n      0xffffffffffffffff\n        /* \"#utility.yul\":1039:1049   */\n      dup3\n        /* \"#utility.yul\":1036:1070   */\n      gt\n        /* \"#utility.yul\":1033:1095   */\n      or\n        /* \"#utility.yul\":1030:1118   */\n      iszero\n      tag_72\n      jumpi\n        /* \"#utility.yul\":1098:1116   */\n      tag_73\n      tag_47\n      jump\t// in\n    tag_73:\n        /* \"#utility.yul\":1030:1118   */\n    tag_72:\n        /* \"#utility.yul\":1138:1148   */\n      dup1\n        /* \"#utility.yul\":1134:1136   */\n      0x40\n        /* \"#utility.yul\":1127:1149   */\n      mstore\n        /* \"#utility.yul\":917:1155   */\n      pop\n        /* \"#utility.yul\":874:1155   */\n      pop\n      pop\n      jump\t// out\n        /* \"#utility.yul\":1161:1290   */\n    tag_49:\n        /* \"#utility.yul\":1195:1201   */\n      0x00\n        /* \"#utility.yul\":1222:1242   */\n      tag_75\n      tag_41\n      jump\t// in\n    tag_75:\n        /* \"#utility.yul\":1212:1242   */\n      swap1\n      pop\n        /* \"#utility.yul\":1251:1284   */\n      tag_76\n        /* \"#utility.yul\":1279:1283   */\n      dup3\n        /* \"#utility.yul\":1271:1277   */\n      dup3\n        /* \"#utility.yul\":1251:1284   */\n      tag_48\n      jump\t// in\n    tag_76:\n        /* \"#utility.yul\":1161:1290   */\n      swap2\n      swap1\n      pop\n      jump\t// out\n        /* \"#utility.yul\":1296:1604   */\n    tag_50:\n        /* \"#utility.yul\":1358:1362   */\n      0x00\n        /* \"#utility.yul\":1448:1466   */\n      0xffffffffffffffff\n        /* \"#utility.yul\":1440:1446   */\n      dup3\n        /* \"#utility.yul\":1437:1467   */\n      gt\n        /* \"#utility.yul\":1434:1490   */\n      iszero\n      tag_78\n      jumpi\n        /* \"#utility.yul\":1470:1488   */\n      tag_79\n      tag_47\n      jump\t// in\n    tag_79:\n        /* \"#utility.yul\":1434:1490   */\n    tag_78:\n        /* \"#utility.yul\":1508:1537   */\n      tag_80\n        /* \"#utility.yul\":1530:1536   */\n      dup3\n        /* \"#utility.yul\":1508:1537   */\n      tag_46\n      jump\t// in\n    tag_80:\n        /* \"#utility.yul\":1500:1537   */\n      swap1\n      pop\n        /* \"#utility.yul\":1592:1596   */\n      0x20\n        /* \"#utility.yul\":1586:1590   */\n      dup2\n        /* \"#utility.yul\":1582:1597   */\n      add\n        /* \"#utility.yul\":1574:1597   */\n      swap1\n      pop\n        /* \"#utility.yul\":1296:1604   */\n      swap2\n      swap1\n      pop\n      jump\t// out\n        /* \"#utility.yul\":1610:1758   */\n    tag_51:\n        /* \"#utility.yul\":1708:1714   */\n      dup3\n        /* \"#utility.yul\":1703:1706   */\n      dup2\n        /* \"#utility.yul\":1698:1701   */\n      dup4\n        /* \"#utility.yul\":1685:1715   */\n      calldatacopy\n        /* \"#utility.yul\":1749:1750   */\n      0x00\n        /* \"#utility.yul\":1740:1746   */\n      dup4\n        /* \"#utility.yul\":1735:1738   */\n      dup4\n        /* \"#utility.yul\":1731:1747   */\n      add\n        /* \"#utility.yul\":1724:1751   */\n      mstore\n        /* \"#utility.yul\":1610:1758   */\n      pop\n      pop\n      pop\n      jump\t// out\n        /* \"#utility.yul\":1764:2189   */\n    tag_52:\n        /* \"#utility.yul\":1842:1847   */\n      0x00\n        /* \"#utility.yul\":1867:1933   */\n      tag_83\n        /* \"#utility.yul\":1883:1932   */\n      tag_84\n        /* \"#utility.yul\":1925:1931   */\n      dup5\n        /* \"#utility.yul\":1883:1932   */\n      tag_50\n      jump\t// in\n    tag_84:\n        /* \"#utility.yul\":1867:1933   */\n      tag_49\n      jump\t// in\n    tag_83:\n        /* \"#utility.yul\":1858:1933   */\n      swap1\n      pop\n        /* \"#utility.yul\":1956:1962   */\n      dup3\n        /* \"#utility.yul\":1949:1954   */\n      dup2\n        /* \"#utility.yul\":1942:1963   */\n      mstore\n        /* \"#utility.yul\":1994:1998   */\n      0x20\n        /* \"#utility.yul\":1987:1992   */\n      dup2\n        /* \"#utility.yul\":1983:1999   */\n      add\n        /* \"#utility.yul\":2032:2035   */\n      dup5\n        /* \"#utility.yul\":2023:2029   */\n      dup5\n        /* \"#utility.yul\":2018:2021   */\n      dup5\n        /* \"#utility.yul\":2014:2030   */\n      add\n        /* \"#utility.yul\":2011:2036   */\n      gt\n        /* \"#utility.yul\":2008:2120   */\n      iszero\n      tag_85\n      jumpi\n        /* \"#utility.yul\":2039:2118   */\n      tag_86\n      tag_45\n      jump\t// in\n    tag_86:\n        /* \"#utility.yul\":2008:2120   */\n    tag_85:\n        /* \"#utility.yul\":2129:2183   */\n      tag_87\n        /* \"#utility.yul\":2176:2182   */\n      dup5\n        /* \"#utility.yul\":2171:2174   */\n      dup3\n        /* \"#utility.yul\":2166:2169   */\n      dup6\n        /* \"#utility.yul\":2129:2183   */\n      tag_51\n      jump\t// in\n    tag_87:\n        /* \"#utility.yul\":1848:2189   */\n      pop\n        /* \"#utility.yul\":1764:2189   */\n      swap4\n      swap3\n      pop\n      pop\n      pop\n      jump\t// out\n        /* \"#utility.yul\":2209:2549   */\n    tag_53:\n        /* \"#utility.yul\":2265:2270   */\n      0x00\n        /* \"#utility.yul\":2314:2317   */\n      dup3\n        /* \"#utility.yul\":2307:2311   */\n      0x1f\n        /* \"#utility.yul\":2299:2305   */\n      dup4\n        /* \"#utility.yul\":2295:2312   */\n      add\n        /* \"#utility.yul\":2291:2318   */\n      slt\n        /* \"#utility.yul\":2281:2403   */\n      tag_89\n      jumpi\n        /* \"#utility.yul\":2322:2401   */\n      tag_90\n      tag_44\n      jump\t// in\n    tag_90:\n        /* \"#utility.yul\":2281:2403   */\n    tag_89:\n        /* \"#utility.yul\":2439:2445   */\n      dup2\n        /* \"#utility.yul\":2426:2446   */\n      calldataload\n        /* \"#utility.yul\":2464:2543   */\n      tag_91\n        /* \"#utility.yul\":2539:2542   */\n      dup5\n        /* \"#utility.yul\":2531:2537   */\n      dup3\n        /* \"#utility.yul\":2524:2528   */\n      0x20\n        /* \"#utility.yul\":2516:2522   */\n      dup7\n        /* \"#utility.yul\":2512:2529   */\n      add\n        /* \"#utility.yul\":2464:2543   */\n      tag_52\n      jump\t// in\n    tag_91:\n        /* \"#utility.yul\":2455:2543   */\n      swap2\n      pop\n        /* \"#utility.yul\":2271:2549   */\n      pop\n        /* \"#utility.yul\":2209:2549   */\n      swap3\n      swap2\n      pop\n      pop\n      jump\t// out\n        /* \"#utility.yul\":2555:3064   */\n    tag_6:\n        /* \"#utility.yul\":2624:2630   */\n      0x00\n        /* \"#utility.yul\":2673:2675   */\n      0x20\n        /* \"#utility.yul\":2661:2670   */\n      dup3\n        /* \"#utility.yul\":2652:2659   */\n      dup5\n        /* \"#utility.yul\":2648:2671   */\n      sub\n        /* \"#utility.yul\":2644:2676   */\n      slt\n        /* \"#utility.yul\":2641:2760   */\n      iszero\n      tag_93\n      jumpi\n        /* \"#utility.yul\":2679:2758   */\n      tag_94\n      tag_42\n      jump\t// in\n    tag_94:\n        /* \"#utility.yul\":2641:2760   */\n    tag_93:\n        /* \"#utility.yul\":2827:2828   */\n      0x00\n        /* \"#utility.yul\":2816:2825   */\n      dup3\n        /* \"#utility.yul\":2812:2829   */\n      add\n        /* \"#utility.yul\":2799:2830   */\n      calldataload\n        /* \"#utility.yul\":2857:2875   */\n      0xffffffffffffffff\n        /* \"#utility.yul\":2849:2855   */\n      dup2\n        /* \"#utility.yul\":2846:2876   */\n      gt\n        /* \"#utility.yul\":2843:2960   */\n      iszero\n      tag_95\n      jumpi\n        /* \"#utility.yul\":2879:2958   */\n      tag_96\n      tag_43\n      jump\t// in\n    tag_96:\n        /* \"#utility.yul\":2843:2960   */\n    tag_95:\n        /* \"#utility.yul\":2984:3047   */\n      tag_97\n        /* \"#utility.yul\":3039:3046   */\n      dup5\n        /* \"#utility.yul\":3030:3036   */\n      dup3\n        /* \"#utility.yul\":3019:3028   */\n      dup6\n        /* \"#utility.yul\":3015:3037   */\n      add\n        /* \"#utility.yul\":2984:3047   */\n      tag_53\n      jump\t// in\n    tag_97:\n        /* \"#utility.yul\":2974:3047   */\n      swap2\n      pop\n        /* \"#utility.yul\":2770:3057   */\n      pop\n        /* \"#utility.yul\":2555:3064   */\n      swap3\n      swap2\n      pop\n      pop\n      jump\t// out\n        /* \"#utility.yul\":3070:3147   */\n    tag_54:\n        /* \"#utility.yul\":3107:3114   */\n      0x00\n        /* \"#utility.yul\":3136:3141   */\n      dup2\n        /* \"#utility.yul\":3125:3141   */\n      swap1\n      pop\n        /* \"#utility.yul\":3070:3147   */\n      swap2\n      swap1\n      pop\n      jump\t// out\n        /* \"#utility.yul\":3153:3271   */\n    tag_55:\n        /* \"#utility.yul\":3240:3264   */\n      tag_100\n        /* \"#utility.yul\":3258:3263   */\n      dup2\n        /* \"#utility.yul\":3240:3264   */\n      tag_54\n      jump\t// in\n    tag_100:\n        /* \"#utility.yul\":3235:3238   */\n      dup3\n        /* \"#utility.yul\":3228:3265   */\n      mstore\n        /* \"#utility.yul\":3153:3271   */\n      pop\n      pop\n      jump\t// out\n        /* \"#utility.yul\":3277:3499   */\n    tag_9:\n        /* \"#utility.yul\":3370:3374   */\n      0x00\n        /* \"#utility.yul\":3408:3410   */\n      0x20\n        /* \"#utility.yul\":3397:3406   */\n      dup3\n        /* \"#utility.yul\":3393:3411   */\n      add\n        /* \"#utility.yul\":3385:3411   */\n      swap1\n      pop\n        /* \"#utility.yul\":3421:3492   */\n      tag_102\n        /* \"#utility.yul\":3489:3490   */\n      0x00\n        /* \"#utility.yul\":3478:3487   */\n      dup4\n        /* \"#utility.yul\":3474:3491   */\n      add\n        /* \"#utility.yul\":3465:3471   */\n      dup5\n        /* \"#utility.yul\":3421:3492   */\n      tag_55\n      jump\t// in\n    tag_102:\n        /* \"#utility.yul\":3277:3499   */\n      swap3\n      swap2\n      pop\n      pop\n      jump\t// out\n        /* \"#utility.yul\":3505:3674   */\n    tag_56:\n        /* \"#utility.yul\":3589:3600   */\n      0x00\n        /* \"#utility.yul\":3623:3629   */\n      dup3\n        /* \"#utility.yul\":3618:3621   */\n      dup3\n        /* \"#utility.yul\":3611:3630   */\n      mstore\n        /* \"#utility.yul\":3663:3667   */\n      0x20\n        /* \"#utility.yul\":3658:3661   */\n      dup3\n        /* \"#utility.yul\":3654:3668   */\n      add\n        /* \"#utility.yul\":3639:3668   */\n      swap1\n      pop\n        /* \"#utility.yul\":3505:3674   */\n      swap3\n      swap2\n      pop\n      pop\n      jump\t// out\n        /* \"#utility.yul\":3680:3842   */\n    tag_57:\n        /* \"#utility.yul\":3820:3834   */\n      0x456d70747920737472696e670000000000000000000000000000000000000000\n        /* \"#utility.yul\":3816:3817   */\n      0x00\n        /* \"#utility.yul\":3808:3814   */\n      dup3\n        /* \"#utility.yul\":3804:3818   */\n      add\n        /* \"#utility.yul\":3797:3835   */\n      mstore\n        /* \"#utility.yul\":3680:3842   */\n      pop\n      jump\t// out\n        /* \"#utility.yul\":3848:4214   */\n    tag_58:\n        /* \"#utility.yul\":3990:3993   */\n      0x00\n        /* \"#utility.yul\":4011:4078   */\n      tag_106\n        /* \"#utility.yul\":4075:4077   */\n      0x0c\n        /* \"#utility.yul\":4070:4073   */\n      dup4\n        /* \"#utility.yul\":4011:4078   */\n      tag_56\n      jump\t// in\n    tag_106:\n        /* \"#utility.yul\":4004:4078   */\n      swap2\n      pop\n        /* \"#utility.yul\":4087:4180   */\n      tag_107\n        /* \"#utility.yul\":4176:4179   */\n      dup3\n        /* \"#utility.yul\":4087:4180   */\n      tag_57\n      jump\t// in\n    tag_107:\n        /* \"#utility.yul\":4205:4207   */\n      0x20\n        /* \"#utility.yul\":4200:4203   */\n      dup3\n        /* \"#utility.yul\":4196:4208   */\n      add\n        /* \"#utility.yul\":4189:4208   */\n      swap1\n      pop\n        /* \"#utility.yul\":3848:4214   */\n      swap2\n      swap1\n      pop\n      jump\t// out\n        /* \"#utility.yul\":4220:4639   */\n    tag_13:\n        /* \"#utility.yul\":4386:4390   */\n      0x00\n        /* \"#utility.yul\":4424:4426   */\n      0x20\n        /* \"#utility.yul\":4413:4422   */\n      dup3\n        /* \"#utility.yul\":4409:4427   */\n      add\n        /* \"#utility.yul\":4401:4427   */\n      swap1\n      pop\n        /* \"#utility.yul\":4473:4482   */\n      dup2\n        /* \"#utility.yul\":4467:4471   */\n      dup2\n        /* \"#utility.yul\":4463:4483   */\n      sub\n        /* \"#utility.yul\":4459:4460   */\n      0x00\n        /* \"#utility.yul\":4448:4457   */\n      dup4\n        /* \"#utility.yul\":4444:4461   */\n      add\n        /* \"#utility.yul\":4437:4484   */\n      mstore\n        /* \"#utility.yul\":4501:4632   */\n      tag_109\n        /* \"#utility.yul\":4627:4631   */\n      dup2\n        /* \"#utility.yul\":4501:4632   */\n      tag_58\n      jump\t// in\n    tag_109:\n        /* \"#utility.yul\":4493:4632   */\n      swap1\n      pop\n        /* \"#utility.yul\":4220:4639   */\n      swap2\n      swap1\n      pop\n      jump\t// out\n        /* \"#utility.yul\":4645:4825   */\n    tag_59:\n        /* \"#utility.yul\":4693:4770   */\n      0x4e487b7100000000000000000000000000000000000000000000000000000000\n        /* \"#utility.yul\":4690:4691   */\n      0x00\n        /* \"#utility.yul\":4683:4771   */\n      mstore\n        /* \"#utility.yul\":4790:4794   */\n      0x11\n        /* \"#utility.yul\":4787:4788   */\n      0x04\n        /* \"#utility.yul\":4780:4795   */\n      mstore\n        /* \"#utility.yul\":4814:4818   */\n      0x24\n        /* \"#utility.yul\":4811:4812   */\n      0x00\n        /* \"#utility.yul\":4804:4819   */\n      revert\n        /* \"#utility.yul\":4831:5025   */\n    tag_18:\n        /* \"#utility.yul\":4871:4875   */\n      0x00\n        /* \"#utility.yul\":4891:4911   */\n      tag_112\n        /* \"#utility.yul\":4909:4910   */\n      dup3\n        /* \"#utility.yul\":4891:4911   */\n      tag_54\n      jump\t// in\n    tag_112:\n        /* \"#utility.yul\":4886:4911   */\n      swap2\n      pop\n        /* \"#utility.yul\":4925:4945   */\n      tag_113\n        /* \"#utility.yul\":4943:4944   */\n      dup4\n        /* \"#utility.yul\":4925:4945   */\n      tag_54\n      jump\t// in\n    tag_113:\n        /* \"#utility.yul\":4920:4945   */\n      swap3\n      pop\n        /* \"#utility.yul\":4969:4970   */\n      dup3\n        /* \"#utility.yul\":4966:4967   */\n      dup3\n        /* \"#utility.yul\":4962:4971   */\n      sub\n        /* \"#utility.yul\":4954:4971   */\n      swap1\n      pop\n        /* \"#utility.yul\":4993:4994   */\n      dup2\n        /* \"#utility.yul\":4987:4991   */\n      dup2\n        /* \"#utility.yul\":4984:4995   */\n      gt\n        /* \"#utility.yul\":4981:5018   */\n      iszero\n      tag_114\n      jumpi\n        /* \"#utility.yul\":4998:5016   */\n      tag_115\n      tag_59\n      jump\t// in\n    tag_115:\n        /* \"#utility.yul\":4981:5018   */\n    tag_114:\n        /* \"#utility.yul\":4831:5025   */\n      swap3\n      swap2\n      pop\n      pop\n      jump\t// out\n        /* \"#utility.yul\":5031:5211   */\n    tag_21:\n        /* \"#utility.yul\":5079:5156   */\n      0x4e487b7100000000000000000000000000000000000000000000000000000000\n        /* \"#utility.yul\":5076:5077   */\n      0x00\n        /* \"#utility.yul\":5069:5157   */\n      mstore\n        /* \"#utility.yul\":5176:5180   */\n      0x32\n        /* \"#utility.yul\":5173:5174   */\n      0x04\n        /* \"#utility.yul\":5166:5181   */\n      mstore\n        /* \"#utility.yul\":5200:5204   */\n      0x24\n        /* \"#utility.yul\":5197:5198   */\n      0x00\n        /* \"#utility.yul\":5190:5205   */\n      revert\n        /* \"#utility.yul\":5217:5408   */\n    tag_28:\n        /* \"#utility.yul\":5257:5260   */\n      0x00\n        /* \"#utility.yul\":5276:5296   */\n      tag_118\n        /* \"#utility.yul\":5294:5295   */\n      dup3\n        /* \"#utility.yul\":5276:5296   */\n      tag_54\n      jump\t// in\n    tag_118:\n        /* \"#utility.yul\":5271:5296   */\n      swap2\n      pop\n        /* \"#utility.yul\":5310:5330   */\n      tag_119\n        /* \"#utility.yul\":5328:5329   */\n      dup4\n        /* \"#utility.yul\":5310:5330   */\n      tag_54\n      jump\t// in\n    tag_119:\n        /* \"#utility.yul\":5305:5330   */\n      swap3\n      pop\n        /* \"#utility.yul\":5353:5354   */\n      dup3\n        /* \"#utility.yul\":5350:5351   */\n      dup3\n        /* \"#utility.yul\":5346:5355   */\n      add\n        /* \"#utility.yul\":5339:5355   */\n      swap1\n      pop\n        /* \"#utility.yul\":5374:5377   */\n      dup1\n        /* \"#utility.yul\":5371:5372   */\n      dup3\n        /* \"#utility.yul\":5368:5378   */\n      gt\n        /* \"#utility.yul\":5365:5401   */\n      iszero\n      tag_120\n      jumpi\n        /* \"#utility.yul\":5381:5399   */\n      tag_121\n      tag_59\n      jump\t// in\n    tag_121:\n        /* \"#utility.yul\":5365:5401   */\n    tag_120:\n        /* \"#utility.yul\":5217:5408   */\n      swap3\n      swap2\n      pop\n      pop\n      jump\t// out\n        /* \"#utility.yul\":5414:5585   */\n    tag_30:\n        /* \"#utility.yul\":5453:5456   */\n      0x00\n        /* \"#utility.yul\":5476:5500   */\n      tag_123\n        /* \"#utility.yul\":5494:5499   */\n      dup3\n        /* \"#utility.yul\":5476:5500   */\n      tag_54\n      jump\t// in\n    tag_123:\n        /* \"#utility.yul\":5467:5500   */\n      swap2\n      pop\n        /* \"#utility.yul\":5522:5526   */\n      0x00\n        /* \"#utility.yul\":5515:5520   */\n      dup3\n        /* \"#utility.yul\":5512:5527   */\n      sub\n        /* \"#utility.yul\":5509:5550   */\n      tag_124\n      jumpi\n        /* \"#utility.yul\":5530:5548   */\n      tag_125\n      tag_59\n      jump\t// in\n    tag_125:\n        /* \"#utility.yul\":5509:5550   */\n    tag_124:\n        /* \"#utility.yul\":5577:5578   */\n      0x01\n        /* \"#utility.yul\":5570:5575   */\n      dup3\n        /* \"#utility.yul\":5566:5579   */\n      sub\n        /* \"#utility.yul\":5559:5579   */\n      swap1\n      pop\n        /* \"#utility.yul\":5414:5585   */\n      swap2\n      swap1\n      pop\n      jump\t// out\n        /* \"#utility.yul\":5591:5764   */\n    tag_60:\n        /* \"#utility.yul\":5731:5756   */\n      0x496e76616c696420526f6d616e20636861726163746572000000000000000000\n        /* \"#utility.yul\":5727:5728   */\n      0x00\n        /* \"#utility.yul\":5719:5725   */\n      dup3\n        /* \"#utility.yul\":5715:5729   */\n      add\n        /* \"#utility.yul\":5708:5757   */\n      mstore\n        /* \"#utility.yul\":5591:5764   */\n      pop\n      jump\t// out\n        /* \"#utility.yul\":5770:6136   */\n    tag_61:\n        /* \"#utility.yul\":5912:5915   */\n      0x00\n        /* \"#utility.yul\":5933:6000   */\n      tag_128\n        /* \"#utility.yul\":5997:5999   */\n      0x17\n        /* \"#utility.yul\":5992:5995   */\n      dup4\n        /* \"#utility.yul\":5933:6000   */\n      tag_56\n      jump\t// in\n    tag_128:\n        /* \"#utility.yul\":5926:6000   */\n      swap2\n      pop\n        /* \"#utility.yul\":6009:6102   */\n      tag_129\n        /* \"#utility.yul\":6098:6101   */\n      dup3\n        /* \"#utility.yul\":6009:6102   */\n      tag_60\n      jump\t// in\n    tag_129:\n        /* \"#utility.yul\":6127:6129   */\n      0x20\n        /* \"#utility.yul\":6122:6125   */\n      dup3\n        /* \"#utility.yul\":6118:6130   */\n      add\n        /* \"#utility.yul\":6111:6130   */\n      swap1\n      pop\n        /* \"#utility.yul\":5770:6136   */\n      swap2\n      swap1\n      pop\n      jump\t// out\n        /* \"#utility.yul\":6142:6561   */\n    tag_40:\n        /* \"#utility.yul\":6308:6312   */\n      0x00\n        /* \"#utility.yul\":6346:6348   */\n      0x20\n        /* \"#utility.yul\":6335:6344   */\n      dup3\n        /* \"#utility.yul\":6331:6349   */\n      add\n        /* \"#utility.yul\":6323:6349   */\n      swap1\n      pop\n        /* \"#utility.yul\":6395:6404   */\n      dup2\n        /* \"#utility.yul\":6389:6393   */\n      dup2\n        /* \"#utility.yul\":6385:6405   */\n      sub\n        /* \"#utility.yul\":6381:6382   */\n      0x00\n        /* \"#utility.yul\":6370:6379   */\n      dup4\n        /* \"#utility.yul\":6366:6383   */\n      add\n        /* \"#utility.yul\":6359:6406   */\n      mstore\n        /* \"#utility.yul\":6423:6554   */\n      tag_131\n        /* \"#utility.yul\":6549:6553   */\n      dup2\n        /* \"#utility.yul\":6423:6554   */\n      tag_61\n      jump\t// in\n    tag_131:\n        /* \"#utility.yul\":6415:6554   */\n      swap1\n      pop\n        /* \"#utility.yul\":6142:6561   */\n      swap2\n      swap1\n      pop\n      jump\t// out\n\n    auxdata: 0xa264697066735822122061ffa985a3571900e9cf723939de8e92c2c93f8c0fd662d7d46e3602d1c51f7564736f6c634300081e0033\n}\n",
				"bytecode": {
					"linkReferences": {},
					"object": "6080604052348015600e575f5ffd5b506107898061001c5f395ff3fe608060405234801561000f575f5ffd5b5060043610610029575f3560e01c8063cb159dfe1461002d575b5f5ffd5b61004760048036038101906100429190610514565b61005d565b6040516100549190610573565b60405180910390f35b5f5f8290505f815190505f81116100a9576040517f08c379a00000000000000000000000000000000000000000000000000000000081526004016100a0906105e6565b60405180910390fd5b5f5f90505f5f90505f8390505b5f811115610139575f856001836100cd9190610631565b815181106100de576100dd610664565b5b602001015160f81c60f81b90505f6100f582610146565b90508381101561011257808561010b9190610631565b9450610121565b808561011e9190610691565b94505b80935050508080610131906106c4565b9150506100b6565b5081945050505050919050565b5f7f4900000000000000000000000000000000000000000000000000000000000000827effffffffffffffffffffffffffffffffffffffffffffffffffffffffffffff19160361019957600190506103c2565b7f5600000000000000000000000000000000000000000000000000000000000000827effffffffffffffffffffffffffffffffffffffffffffffffffffffffffffff1916036101eb57600590506103c2565b7f5800000000000000000000000000000000000000000000000000000000000000827effffffffffffffffffffffffffffffffffffffffffffffffffffffffffffff19160361023d57600a90506103c2565b7f4c00000000000000000000000000000000000000000000000000000000000000827effffffffffffffffffffffffffffffffffffffffffffffffffffffffffffff19160361028f57603290506103c2565b7f4300000000000000000000000000000000000000000000000000000000000000827effffffffffffffffffffffffffffffffffffffffffffffffffffffffffffff1916036102e157606490506103c2565b7f4400000000000000000000000000000000000000000000000000000000000000827effffffffffffffffffffffffffffffffffffffffffffffffffffffffffffff191603610334576101f490506103c2565b7f4d00000000000000000000000000000000000000000000000000000000000000827effffffffffffffffffffffffffffffffffffffffffffffffffffffffffffff191603610387576103e890506103c2565b6040517f08c379a00000000000000000000000000000000000000000000000000000000081526004016103b990610735565b60405180910390fd5b919050565b5f604051905090565b5f5ffd5b5f5ffd5b5f5ffd5b5f5ffd5b5f601f19601f8301169050919050565b7f4e487b71000000000000000000000000000000000000000000000000000000005f52604160045260245ffd5b610426826103e0565b810181811067ffffffffffffffff82111715610445576104446103f0565b5b80604052505050565b5f6104576103c7565b9050610463828261041d565b919050565b5f67ffffffffffffffff821115610482576104816103f0565b5b61048b826103e0565b9050602081019050919050565b828183375f83830152505050565b5f6104b86104b384610468565b61044e565b9050828152602081018484840111156104d4576104d36103dc565b5b6104df848285610498565b509392505050565b5f82601f8301126104fb576104fa6103d8565b5b813561050b8482602086016104a6565b91505092915050565b5f60208284031215610529576105286103d0565b5b5f82013567ffffffffffffffff811115610546576105456103d4565b5b610552848285016104e7565b91505092915050565b5f819050919050565b61056d8161055b565b82525050565b5f6020820190506105865f830184610564565b92915050565b5f82825260208201905092915050565b7f456d70747920737472696e6700000000000000000000000000000000000000005f82015250565b5f6105d0600c8361058c565b91506105db8261059c565b602082019050919050565b5f6020820190508181035f8301526105fd816105c4565b9050919050565b7f4e487b71000000000000000000000000000000000000000000000000000000005f52601160045260245ffd5b5f61063b8261055b565b91506106468361055b565b925082820390508181111561065e5761065d610604565b5b92915050565b7f4e487b71000000000000000000000000000000000000000000000000000000005f52603260045260245ffd5b5f61069b8261055b565b91506106a68361055b565b92508282019050808211156106be576106bd610604565b5b92915050565b5f6106ce8261055b565b91505f82036106e0576106df610604565b5b600182039050919050565b7f496e76616c696420526f6d616e206368617261637465720000000000000000005f82015250565b5f61071f60178361058c565b915061072a826106eb565b602082019050919050565b5f6020820190508181035f83015261074c81610713565b905091905056fea264697066735822122061ffa985a3571900e9cf723939de8e92c2c93f8c0fd662d7d46e3602d1c51f7564736f6c634300081e0033",
					"opcodes": "PUSH1 0x80 PUSH1 0x40 MSTORE CALLVALUE DUP1 ISZERO PUSH1 0xE JUMPI PUSH0 PUSH0 REVERT JUMPDEST POP PUSH2 0x789 DUP1 PUSH2 0x1C PUSH0 CODECOPY PUSH0 RETURN INVALID PUSH1 0x80 PUSH1 0x40 MSTORE CALLVALUE DUP1 ISZERO PUSH2 0xF JUMPI PUSH0 PUSH0 REVERT JUMPDEST POP PUSH1 0x4 CALLDATASIZE LT PUSH2 0x29 JUMPI PUSH0 CALLDATALOAD PUSH1 0xE0 SHR DUP1 PUSH4 0xCB159DFE EQ PUSH2 0x2D JUMPI JUMPDEST PUSH0 PUSH0 REVERT JUMPDEST PUSH2 0x47 PUSH1 0x4 DUP1 CALLDATASIZE SUB DUP2 ADD SWAP1 PUSH2 0x42 SWAP2 SWAP1 PUSH2 0x514 JUMP JUMPDEST PUSH2 0x5D JUMP JUMPDEST PUSH1 0x40 MLOAD PUSH2 0x54 SWAP2 SWAP1 PUSH2 0x573 JUMP JUMPDEST PUSH1 0x40 MLOAD DUP1 SWAP2 SUB SWAP1 RETURN JUMPDEST PUSH0 PUSH0 DUP3 SWAP1 POP PUSH0 DUP2 MLOAD SWAP1 POP PUSH0 DUP2 GT PUSH2 0xA9 JUMPI PUSH1 0x40 MLOAD PUSH32 0x8C379A000000000000000000000000000000000000000000000000000000000 DUP2 MSTORE PUSH1 0x4 ADD PUSH2 0xA0 SWAP1 PUSH2 0x5E6 JUMP JUMPDEST PUSH1 0x40 MLOAD DUP1 SWAP2 SUB SWAP1 REVERT JUMPDEST PUSH0 PUSH0 SWAP1 POP PUSH0 PUSH0 SWAP1 POP PUSH0 DUP4 SWAP1 POP JUMPDEST PUSH0 DUP2 GT ISZERO PUSH2 0x139 JUMPI PUSH0 DUP6 PUSH1 0x1 DUP4 PUSH2 0xCD SWAP2 SWAP1 PUSH2 0x631 JUMP JUMPDEST DUP2 MLOAD DUP2 LT PUSH2 0xDE JUMPI PUSH2 0xDD PUSH2 0x664 JUMP JUMPDEST JUMPDEST PUSH1 0x20 ADD ADD MLOAD PUSH1 0xF8 SHR PUSH1 0xF8 SHL SWAP1 POP PUSH0 PUSH2 0xF5 DUP3 PUSH2 0x146 JUMP JUMPDEST SWAP1 POP DUP4 DUP2 LT ISZERO PUSH2 0x112 JUMPI DUP1 DUP6 PUSH2 0x10B SWAP2 SWAP1 PUSH2 0x631 JUMP JUMPDEST SWAP5 POP PUSH2 0x121 JUMP JUMPDEST DUP1 DUP6 PUSH2 0x11E SWAP2 SWAP1 PUSH2 0x691 JUMP JUMPDEST SWAP5 POP JUMPDEST DUP1 SWAP4 POP POP POP DUP1 DUP1 PUSH2 0x131 SWAP1 PUSH2 0x6C4 JUMP JUMPDEST SWAP2 POP POP PUSH2 0xB6 JUMP JUMPDEST POP DUP2 SWAP5 POP POP POP POP POP SWAP2 SWAP1 POP JUMP JUMPDEST PUSH0 PUSH32 0x4900000000000000000000000000000000000000000000000000000000000000 DUP3 PUSH31 0xFFFFFFFFFFFFFFFFFFFFFFFFFFFFFFFFFFFFFFFFFFFFFFFFFFFFFFFFFFFFFF NOT AND SUB PUSH2 0x199 JUMPI PUSH1 0x1 SWAP1 POP PUSH2 0x3C2 JUMP JUMPDEST PUSH32 0x5600000000000000000000000000000000000000000000000000000000000000 DUP3 PUSH31 0xFFFFFFFFFFFFFFFFFFFFFFFFFFFFFFFFFFFFFFFFFFFFFFFFFFFFFFFFFFFFFF NOT AND SUB PUSH2 0x1EB JUMPI PUSH1 0x5 SWAP1 POP PUSH2 0x3C2 JUMP JUMPDEST PUSH32 0x5800000000000000000000000000000000000000000000000000000000000000 DUP3 PUSH31 0xFFFFFFFFFFFFFFFFFFFFFFFFFFFFFFFFFFFFFFFFFFFFFFFFFFFFFFFFFFFFFF NOT AND SUB PUSH2 0x23D JUMPI PUSH1 0xA SWAP1 POP PUSH2 0x3C2 JUMP JUMPDEST PUSH32 0x4C00000000000000000000000000000000000000000000000000000000000000 DUP3 PUSH31 0xFFFFFFFFFFFFFFFFFFFFFFFFFFFFFFFFFFFFFFFFFFFFFFFFFFFFFFFFFFFFFF NOT AND SUB PUSH2 0x28F JUMPI PUSH1 0x32 SWAP1 POP PUSH2 0x3C2 JUMP JUMPDEST PUSH32 0x4300000000000000000000000000000000000000000000000000000000000000 DUP3 PUSH31 0xFFFFFFFFFFFFFFFFFFFFFFFFFFFFFFFFFFFFFFFFFFFFFFFFFFFFFFFFFFFFFF NOT AND SUB PUSH2 0x2E1 JUMPI PUSH1 0x64 SWAP1 POP PUSH2 0x3C2 JUMP JUMPDEST PUSH32 0x4400000000000000000000000000000000000000000000000000000000000000 DUP3 PUSH31 0xFFFFFFFFFFFFFFFFFFFFFFFFFFFFFFFFFFFFFFFFFFFFFFFFFFFFFFFFFFFFFF NOT AND SUB PUSH2 0x334 JUMPI PUSH2 0x1F4 SWAP1 POP PUSH2 0x3C2 JUMP JUMPDEST PUSH32 0x4D00000000000000000000000000000000000000000000000000000000000000 DUP3 PUSH31 0xFFFFFFFFFFFFFFFFFFFFFFFFFFFFFFFFFFFFFFFFFFFFFFFFFFFFFFFFFFFFFF NOT AND SUB PUSH2 0x387 JUMPI PUSH2 0x3E8 SWAP1 POP PUSH2 0x3C2 JUMP JUMPDEST PUSH1 0x40 MLOAD PUSH32 0x8C379A000000000000000000000000000000000000000000000000000000000 DUP2 MSTORE PUSH1 0x4 ADD PUSH2 0x3B9 SWAP1 PUSH2 0x735 JUMP JUMPDEST PUSH1 0x40 MLOAD DUP1 SWAP2 SUB SWAP1 REVERT JUMPDEST SWAP2 SWAP1 POP JUMP JUMPDEST PUSH0 PUSH1 0x40 MLOAD SWAP1 POP SWAP1 JUMP JUMPDEST PUSH0 PUSH0 REVERT JUMPDEST PUSH0 PUSH0 REVERT JUMPDEST PUSH0 PUSH0 REVERT JUMPDEST PUSH0 PUSH0 REVERT JUMPDEST PUSH0 PUSH1 0x1F NOT PUSH1 0x1F DUP4 ADD AND SWAP1 POP SWAP2 SWAP1 POP JUMP JUMPDEST PUSH32 0x4E487B7100000000000000000000000000000000000000000000000000000000 PUSH0 MSTORE PUSH1 0x41 PUSH1 0x4 MSTORE PUSH1 0x24 PUSH0 REVERT JUMPDEST PUSH2 0x426 DUP3 PUSH2 0x3E0 JUMP JUMPDEST DUP2 ADD DUP2 DUP2 LT PUSH8 0xFFFFFFFFFFFFFFFF DUP3 GT OR ISZERO PUSH2 0x445 JUMPI PUSH2 0x444 PUSH2 0x3F0 JUMP JUMPDEST JUMPDEST DUP1 PUSH1 0x40 MSTORE POP POP POP JUMP JUMPDEST PUSH0 PUSH2 0x457 PUSH2 0x3C7 JUMP JUMPDEST SWAP1 POP PUSH2 0x463 DUP3 DUP3 PUSH2 0x41D JUMP JUMPDEST SWAP2 SWAP1 POP JUMP JUMPDEST PUSH0 PUSH8 0xFFFFFFFFFFFFFFFF DUP3 GT ISZERO PUSH2 0x482 JUMPI PUSH2 0x481 PUSH2 0x3F0 JUMP JUMPDEST JUMPDEST PUSH2 0x48B DUP3 PUSH2 0x3E0 JUMP JUMPDEST SWAP1 POP PUSH1 0x20 DUP2 ADD SWAP1 POP SWAP2 SWAP1 POP JUMP JUMPDEST DUP3 DUP2 DUP4 CALLDATACOPY PUSH0 DUP4 DUP4 ADD MSTORE POP POP POP JUMP JUMPDEST PUSH0 PUSH2 0x4B8 PUSH2 0x4B3 DUP5 PUSH2 0x468 JUMP JUMPDEST PUSH2 0x44E JUMP JUMPDEST SWAP1 POP DUP3 DUP2 MSTORE PUSH1 0x20 DUP2 ADD DUP5 DUP5 DUP5 ADD GT ISZERO PUSH2 0x4D4 JUMPI PUSH2 0x4D3 PUSH2 0x3DC JUMP JUMPDEST JUMPDEST PUSH2 0x4DF DUP5 DUP3 DUP6 PUSH2 0x498 JUMP JUMPDEST POP SWAP4 SWAP3 POP POP POP JUMP JUMPDEST PUSH0 DUP3 PUSH1 0x1F DUP4 ADD SLT PUSH2 0x4FB JUMPI PUSH2 0x4FA PUSH2 0x3D8 JUMP JUMPDEST JUMPDEST DUP2 CALLDATALOAD PUSH2 0x50B DUP5 DUP3 PUSH1 0x20 DUP7 ADD PUSH2 0x4A6 JUMP JUMPDEST SWAP2 POP POP SWAP3 SWAP2 POP POP JUMP JUMPDEST PUSH0 PUSH1 0x20 DUP3 DUP5 SUB SLT ISZERO PUSH2 0x529 JUMPI PUSH2 0x528 PUSH2 0x3D0 JUMP JUMPDEST JUMPDEST PUSH0 DUP3 ADD CALLDATALOAD PUSH8 0xFFFFFFFFFFFFFFFF DUP2 GT ISZERO PUSH2 0x546 JUMPI PUSH2 0x545 PUSH2 0x3D4 JUMP JUMPDEST JUMPDEST PUSH2 0x552 DUP5 DUP3 DUP6 ADD PUSH2 0x4E7 JUMP JUMPDEST SWAP2 POP POP SWAP3 SWAP2 POP POP JUMP JUMPDEST PUSH0 DUP2 SWAP1 POP SWAP2 SWAP1 POP JUMP JUMPDEST PUSH2 0x56D DUP2 PUSH2 0x55B JUMP JUMPDEST DUP3 MSTORE POP POP JUMP JUMPDEST PUSH0 PUSH1 0x20 DUP3 ADD SWAP1 POP PUSH2 0x586 PUSH0 DUP4 ADD DUP5 PUSH2 0x564 JUMP JUMPDEST SWAP3 SWAP2 POP POP JUMP JUMPDEST PUSH0 DUP3 DUP3 MSTORE PUSH1 0x20 DUP3 ADD SWAP1 POP SWAP3 SWAP2 POP POP JUMP JUMPDEST PUSH32 0x456D70747920737472696E670000000000000000000000000000000000000000 PUSH0 DUP3 ADD MSTORE POP JUMP JUMPDEST PUSH0 PUSH2 0x5D0 PUSH1 0xC DUP4 PUSH2 0x58C JUMP JUMPDEST SWAP2 POP PUSH2 0x5DB DUP3 PUSH2 0x59C JUMP JUMPDEST PUSH1 0x20 DUP3 ADD SWAP1 POP SWAP2 SWAP1 POP JUMP JUMPDEST PUSH0 PUSH1 0x20 DUP3 ADD SWAP1 POP DUP2 DUP2 SUB PUSH0 DUP4 ADD MSTORE PUSH2 0x5FD DUP2 PUSH2 0x5C4 JUMP JUMPDEST SWAP1 POP SWAP2 SWAP1 POP JUMP JUMPDEST PUSH32 0x4E487B7100000000000000000000000000000000000000000000000000000000 PUSH0 MSTORE PUSH1 0x11 PUSH1 0x4 MSTORE PUSH1 0x24 PUSH0 REVERT JUMPDEST PUSH0 PUSH2 0x63B DUP3 PUSH2 0x55B JUMP JUMPDEST SWAP2 POP PUSH2 0x646 DUP4 PUSH2 0x55B JUMP JUMPDEST SWAP3 POP DUP3 DUP3 SUB SWAP1 POP DUP2 DUP2 GT ISZERO PUSH2 0x65E JUMPI PUSH2 0x65D PUSH2 0x604 JUMP JUMPDEST JUMPDEST SWAP3 SWAP2 POP POP JUMP JUMPDEST PUSH32 0x4E487B7100000000000000000000000000000000000000000000000000000000 PUSH0 MSTORE PUSH1 0x32 PUSH1 0x4 MSTORE PUSH1 0x24 PUSH0 REVERT JUMPDEST PUSH0 PUSH2 0x69B DUP3 PUSH2 0x55B JUMP JUMPDEST SWAP2 POP PUSH2 0x6A6 DUP4 PUSH2 0x55B JUMP JUMPDEST SWAP3 POP DUP3 DUP3 ADD SWAP1 POP DUP1 DUP3 GT ISZERO PUSH2 0x6BE JUMPI PUSH2 0x6BD PUSH2 0x604 JUMP JUMPDEST JUMPDEST SWAP3 SWAP2 POP POP JUMP JUMPDEST PUSH0 PUSH2 0x6CE DUP3 PUSH2 0x55B JUMP JUMPDEST SWAP2 POP PUSH0 DUP3 SUB PUSH2 0x6E0 JUMPI PUSH2 0x6DF PUSH2 0x604 JUMP JUMPDEST JUMPDEST PUSH1 0x1 DUP3 SUB SWAP1 POP SWAP2 SWAP1 POP JUMP JUMPDEST PUSH32 0x496E76616C696420526F6D616E20636861726163746572000000000000000000 PUSH0 DUP3 ADD MSTORE POP JUMP JUMPDEST PUSH0 PUSH2 0x71F PUSH1 0x17 DUP4 PUSH2 0x58C JUMP JUMPDEST SWAP2 POP PUSH2 0x72A DUP3 PUSH2 0x6EB JUMP JUMPDEST PUSH1 0x20 DUP3 ADD SWAP1 POP SWAP2 SWAP1 POP JUMP JUMPDEST PUSH0 PUSH1 0x20 DUP3 ADD SWAP1 POP DUP2 DUP2 SUB PUSH0 DUP4 ADD MSTORE PUSH2 0x74C DUP2 PUSH2 0x713 JUMP JUMPDEST SWAP1 POP SWAP2 SWAP1 POP JUMP INVALID LOG2 PUSH5 0x6970667358 0x22 SLT KECCAK256 PUSH2 0xFFA9 DUP6 LOG3 JUMPI NOT STOP 0xE9 0xCF PUSH19 0x3939DE8E92C2C93F8C0FD662D7D46E3602D1C5 0x1F PUSH22 0x64736F6C634300081E00330000000000000000000000 "
				},
				"gasEstimates": {
					"creation": {
						"codeDepositCost": "385800",
						"executionCost": "422",
						"totalCost": "386222"
					},
					"external": {
						"romanToInt(string)": "infinite"
					},
					"internal": {
						"getCharValue(bytes1)": "infinite"
					}
				},
				"methodIdentifiers": {
					"romanToInt(string)": "cb159dfe"
				}
			},
			"storageLayout": {
				"storage": [],
				"types": null
			},
			"userdoc": {
				"kind": "user",
				"methods": {},
				"version": 1
			}
		}
	}
}